:020000040800F2
:1000000000470220A102000867310108B12201085F
:100010006531010869F8000801440108000000008A
:10002000000000000000000000000000DD010008EA
:10003000B1F900080000000039020008BD3D0108C8
:10004000BB020008BB020008BB020008BB0200089C
:10005000BB020008BB020008BB020008BB0200088C
:10006000BB020008BB020008BB020008BB0200087C
:10007000BB020008BB020008BB020008BB0200086C
:10008000BB020008BB020008BB020008BB0200085C
:10009000BB020008BB020008BB020008BB0200084C
:1000A000BB020008BB020008BB020008BB0200083C
:1000B000BB020008BB020008BB020008BB0200082C
:1000C000BB020008BB020008BB020008BB0200081C
:1000D000BB020008BB020008BB020008BB0200080C
:1000E000BB020008BB020008BB020008BB020008FC
:1000F000BB020008BB020008BB020008BB020008EC
:10010000BB020008BB020008BB020008BB020008DB
:10011000BB020008BB020008FD3E0108BB0200084C
:10012000BB020008BB020008BB020008BB020008BB
:10013000BB020008BB020008BB020008BB020008AB
:10014000BB020008BB020008BB020008BB0200089B
:10015000BB020008BB020008BB020008BB0200088B
:10016000BB020008BB020008BB020008BB0200087B
:10017000BB020008BB020008BB0200080000000030
:10018000BB020008BB020008BB020008BB0200085B
:10019000BB020008BB020008BB020008BB0200084B
:1001A0009D270108BB02000849F90008BB020008AE
:1001B000BB020008BB020008BB020008BB0200082B
:1001C000BB020008BB020008DFF80CD000F006F903
:1001D000004800473D460108004702202D4B1968A2
:1001E0000868B0E8F04F80F30988BFF36F8F4FF0D5
:1001F000000080F311887047000000000848006884
:10020000006880F308884FF0000080F3148862B61D
:1002100061B6BFF34F8FBFF36F8F00DF00BF00BF2A
:1002200008ED00E0DFF80C00016841F470010160A6
:10023000704700BF88ED00E0EFF30980BFF36F8FD8
:10024000144B1A681EF0100F08BF20ED108A20E929
:10025000F04F106009B44FF0500072B680F311886F
:10026000BFF34F8FBFF36F8F62B614F0DFFF4FF015
:10027000000080F3118809BC19680868B0E8F04FE5
:100280001EF0100F08BFB0EC108A80F30988BFF38E
:100290006F8F704734000020EFF305807047000037
:1002A0000648804706480047FEE7FEE7FEE7FEE710
:1002B000FEE7FEE7FEE7FEE7FEE7FEE7A93E0108F0
:1002C000C90100082DE9F05F0546002092469B46D3
:1002D00088460646814640241BE02846414647465C
:1002E000224600F06BF853465A46C01A914110D38B
:1002F00011461846224600F052F82D1A67EB010805
:100300004F4622460120002100F049F817EB000972
:100310004E41201EA4F10104DFDC484631462A4646
:100320004346BDE8F09F10B5441A0346944209D2F3
:100330008418114403E011F8013D04F8013D521EF8
:10034000F9D210BD40EA0104A40703D009E010C9A6
:10035000121F10C3042AFAD203E011F8014B03F86C
:10036000014B521EF9D210BDD2B201E000F8012BB0
:10037000491EFBD270470022F6E710B513460A4625
:1003800004461946FFF7F0FF204610BD034611F85A
:10039000012B00F8012B002AF9D118467047202ABA
:1003A00004DB203A00FA02F1002070479140C2F1CC
:1003B000200320FA03F3194390407047202A04DBFE
:1003C000203A21FA02F00021704721FA02F3D040CE
:1003D000C2F120029140084319467047064C074D70
:1003E00006E0E06840F0010394E807009847103405
:1003F000AC42F6D3FFF7ECFE88BC0108A8BC0108AC
:1004000070B58C1810F8015B15F0070301D110F8D6
:10041000013B2A1106D110F8012B03E010F8016B03
:1004200001F8016B5B1EF9D12B0705D40023521E86
:100430000DD401F8013BFAE710F8013BCB1A921CEE
:1004400003E013F8015B01F8015B521EF9D5A142EC
:10045000D8D3002070BD00002DE9F047466886B073
:100460000546304601F034FAC36D0090D0F888405C
:10047000D0F88070D0F86880B0F87C90002B64D001
:10048000D3F800A0684601F0F7FA14B909E024682F
:100490003CB16368284698470028F8D006B0BDE80C
:1004A000F0872B68172B00F0A5801DDC0F2B00F0C8
:1004B0008D807DDC0B2B00F0BF800D2B0AD119F055
:1004C000080F07D1EB68DB6823B11B7A13B1304604
:1004D00008F07CFB3046294606F0C6FE0028DDD039
:1004E000284607F085F9D9E7262B75D02FDC1E2B7F
:1004F00000F0AE80202BEDD1EC68002CEAD0314624
:10050000606809F025FC002800F0C080304601F04A
:10051000DFF9B0F87C3002460190180740F12D81D8
:1005200001A801F0A9FA3146606809F0FFFB002834
:10053000D0D0304601F0CCF96268034601A801939F
:10054000C3F8802001F098FAC4E79A469AE72A2B6C
:1005500065D0B3F5107FBDD106AC3046D5F80C8020
:1005600001F0B6F9B0F87C7044F8140D204601F0A3
:1005700083FAEB68002B91D098F80830002B00F03C
:10058000AB80380740F1B780304606F0EDFF07F446
:100590008873B3F5887F81D107F080039BB2002B6D
:1005A0007FF47CAF41463046052208F0BDFA75E77E
:1005B000112B22D0142B8DD1304601A900F09AFBCB
:1005C00002ABEA6803CB1060516067E7BAF1000F35
:1005D00080D03046D0477DE7EB68022B7FF45EAFDA
:1005E000272206A9A86841F8142D0396049309F060
:1005F000ADFC53E7C5F80C8050E7EC68304601F0DD
:1006000067F901902389012B05D1B0F87C3043F4C0
:100610008073A0F87C3001A801F02EFA5AE730462A
:1006200001F056F9EB680090002B68D0C0F88430D8
:10063000684601F021FA31E7304601F049F90346F6
:100640007030009300F0EEFF684601F015FA41E7C4
:10065000EC68012C57D0002E3FF420AF02F0F6FAE0
:10066000304601F035F9B0F87C30024601901C07A5
:1006700006D523F008033046A2F87C3007F096FD3B
:1006800001A801F0F9F904F02FF907E7304601F06D
:100690001FF9B0F87C3002460190190706D523F007
:1006A00008033046A2F87C3007F080FD01A801F075
:1006B000E3F93146206809F039FB00283FF40AAF1E
:1006C000304601F005F92268034601A80193C3F8FA
:1006D000802001F0D1F9FDE6304601F0F9F803463B
:1006E0002046B3F87C20019322F48072A3F87C208A
:1006F00001F0C2F9D2E6304608F068FA44E7D0F8D3
:100700008430EB6094E7384608F070F820B3384640
:1007100008F05CFA384607F01FFCB0B926B9002F84
:100720007FF4BCAEEF60B9E602F090FA304601F01B
:10073000CFF8B0F87C3002460190190725D501A802
:1007400001F09AF904F0D0F8E9E72146384606F0BE
:100750007BFE002EE3D0E7E7404608F0A3FA074609
:10076000304601F0B5F803466846C3F88070009340
:1007700001F082F9002ED2D0D6E743F008033046CC
:10078000A2F87C3007F012FDCAE643F008033046B9
:10079000A2F87C3007F00AFDD1E700BF2DE9F04F49
:1007A0000F46B0F90C108FB0B0F90A6001EB030BE3
:1007B000B0F9083085691644049343686035B0F990
:1007C0000E80B0F91090B0F812A0059302F03EFA36
:1007D0004B4C4FF4805E03955946009730464B468C
:1007E00042460294CDF804E006F006FF054628B91B
:1007F00004F07AF828460FB0BDE8F08FDFF80891D2
:100800000EAE01F065F804993022069006F048FE1D
:1008100056F8207DCE464FF0000807F13404BEE8BC
:100820000F000FC4BEE80F000FC49EE80300189B22
:1008300084E803007B663046D9F8283041F28274A0
:10084000A7F87CA0FB65C7F88080C7F86C80C7F864
:10085000888001F011F909A928462A4F00F04AFAC8
:10086000BDF92AE0BDF92810BDF92C20BDF92E30C4
:100870000846521A0194CEEB030371460132CDF8BB
:100880000C8001330095029706F0B6FED9F82830A7
:10089000044628465B689847284601F019F8034645
:1008A00030469C66069301F0E7F8284607F0F6F814
:1008B00002F0CCF9284601F00BF8034607A81A6F9E
:1008C0000793089201F0D8F8059908A805F07CF87C
:1008D00038B904F009F804F007F828460FB0BDE86D
:1008E000F08F284600F0F4FF089A034607A81A671D
:1008F000079301F0C1F8284607F058FCE9E700BF6C
:1009000059040008150F0008C80000202DE9F04127
:10091000044690B0006800F0D5F9B04B6668A3F1CA
:100920002C05002808BF1D461C2E00F2F780DFE8CA
:1009300016F02200F500F500F500F5003500F50091
:10094000F500F500F500F5005100F500F500FA009E
:10095000F500F500F5000E01F500F50048014A012B
:100960004C014E01F500F500F5001D006E693046A2
:1009700010B0BDE8F081206800F0AAFF034610A87F
:10098000B3F85A2040F82C3D42F00C02A3F85A204C
:1009900001F072F8206808F005FAE8E72A690026F5
:1009A000B4F910300192B4F914701846EA68B4F939
:1009B00018503946B4F91C40ADF81C30009223465B
:1009C0002A46ADF81E70ADF82050ADF8224001F077
:1009D0004BFDCCE723681C2218460892079300F0D1
:1009E00077FF034607A805931B6D9847064605A8A1
:1009F00001F042F8012E40F32781A968334662696D
:100A000002916868A16901902F682069009704F03D
:100A10001BFC2769A3693744C6EB0308286803F069
:100A2000E9FC42463946606901F0F8FD686803F068
:100A3000E1FC606942463946013001F0EFFD6B6A26
:100A4000022B00F3F4802A6A964217DA6769012EB6
:100A5000206907F1020840F32A81024437443044F8
:100A60004146013A3B4601F0CFFEA069821B3B465E
:100A7000EF694146C01B013001F0C6FE012E40F374
:100A8000138163691E44E7692868013F03F0B2FCE3
:100A9000314620693A4601F05FFE3A463146A06988
:100AA00001F05AFEE769686803F0A4FC023F206980
:100AB00031463A46013001F04FFEA0693A463146D0
:100AC000013801F049FEEB69022B40F38280AB6AEA
:100AD000E769022BA868CCBFFF1A023F03F08AFC2B
:100AE000EA69022A00F39A802B6A022B00F38C80B9
:100AF000286803F07FFCA2692169E06901F08EFD9E
:100B0000686803F077FCA2692169E069013A013164
:100B1000013801F083FDAF6A022F61DC0026304608
:100B200010B0BDE8F08104F114012769A86800261F
:100B3000ADF81C700EC9ADF81E10ADF82020ADF850
:100B4000223003F057FC07A801F08AFE0FE7298B3B
:100B50002269A3690A4465695B1AE1692068ADF8F6
:100B60002030ADF81C20ADF81E50ADF8221000F07A
:100B7000AFFE036F0590FBB1022003F097FC059ACE
:100B8000B2F87C30C3F3C0030E3302EB83039868E2
:100B900003F030FC059B586B03F044FC059B186F79
:100BA00000F096FE059B07A90690B3F95A2001F0C4
:100BB00059FB06A800F060FF05A8002600F05CFFC6
:100BC000D5E6AE6AD3E6EE69D1E62E6ACFE66E6A66
:100BD000CDE62B6A022B8BDD79E700BF7001002088
:100BE000D4F81C800026A2692169A868951E8C1C77
:100BF00003F000FCC7EB08012A462046A8F10203D7
:100C0000013101F001FEB2E6A0693B46EF693146D1
:100C1000821EC01B013001F0F7FD69E720693B46E9
:100C2000314602440230013A01F0EEFD5CE7A8686B
:100C300003F0E0FB636938466F6A991C42463B4407
:100C4000013B01F0E1FD19E7286803F0D3FB2269BD
:100C5000EB69114660691A44013A01F0DFFCA369AF
:100C6000E9691A466069591A013101F0D7FC6769D0
:100C700020690137394601F0FDFC3946A06901F0D1
:100C8000F9FC686803F0B6FB20693946013001F0D1
:100C9000F1FCA0693946013801F0ECFC2769A36931
:100CA0000237A3F10208B9E666690236EBE60244B0
:100CB000434602304146013A474601F0A5FDA0698E
:100CC000821ED4E610B5044682B080B101F0BEFFAA
:100CD000204600F0FDFD02ABB0F87C4043F8040D67
:100CE0001846C4F3C00400F0C7FE03F0FDFD204623
:100CF00002B010BD2DE9F04F89B007460D4600F057
:100D0000E7FD034601213846DA6D059394682368B0
:100D10009847236803218046384698472368022174
:100D200083463846984723680021824638469847CC
:100D30008146059808F020FC0646059808F024FC3A
:100D400003460598448E04F02004A4B2B4B1B0F96F
:100D50005420B0F95840002A4AD091B2C06E0C44D9
:100D6000A4B280B103910292019307F0C9F8019BEC
:100D70000FFA80FC029A80B2039905E021462246D0
:100D8000C06E0028EED184461FFA89FE013E013B69
:100D90000FFA88F8CBEB060674440EF1FF3ECAEB5F
:100DA000030336B2044471446B812A8005A8A5F878
:100DB00002C0EC8069822E812E82A5F80480A5F8FD
:100DC0000C80A5F80E9000F057FE08AAB5F9104067
:100DD0003846B5F90C3006A942F8044D069300F0E8
:100DE0004BF8069A079BAA812B8209B0BDE8F08FC9
:100DF000406B019301F03EFE821C019B059891B26D
:100E000012B20C44A4B2BBE708B5438E03F0200332
:100E10009BB24BB10246B0F9540000B108BD506B13
:100E200001F028FE023008BD184608BD70B58AB032
:100E30000C46064600F04CFD0AABC26D43F8280D87
:100E40001846956800F018FE0196032C05D8DFE8D7
:100E500004F00F0C0902172302936B6801A898474E
:100E60000AB070BD15230293F7E716230293F4E747
:100E700018230293F1E700BF2DE9F04383B08846C1
:100E80000446914600F024FD034602A8DA6D40F8BE
:100E9000083D9568B3F90070B3F9026000F0ECFD0D
:100EA0002B682046002198470546204606F0AEFFF5
:100EB00068B3044607E001A800F0DEFD204606F016
:100EC000C3FF044618B3204600F002FDB0F902301B
:100ED00001909B1B9D42EED1836A1B060BD5B0F996
:100EE0000030D9F80020DB1B934203F1FF33E2DC32
:100EF000C9F80030DFE7B0F90430D8F80020DB1B78
:100F0000934203F10103A8BFC8F80030D3E703B050
:100F1000BDE8F0832DE9F043456887B004462846D4
:100F200006F0A0FF074600F0D3FC034606A85E6E5D
:100F300040F8143DD3F84880D3F8809000F09CFD31
:100F400023680E3B232B3FD8DFE803F035463E3EB7
:100F50003E3E12123E123E3E3E3E3E3E18243E3E75
:100F60002B3E3E3E3E3E3E3E3E3E3E3E3E3E3E30C2
:100F7000204606F03DFC07B0BDE8F083E368002B97
:100F8000F9D0B9F1000F3BD04D4539D0484607F0B4
:100F90001DFEF0E72146384606F066F907B0BDE8C9
:100FA000F083C4F80C8007B0BDE8F0830023E36051
:100FB00007B0BDE8F083E3685A68002A04DD1B68C7
:100FC000092B1DD00A2B1FD0002ED1D020466760E0
:100FD000B04707B0BDE8F0836FF07043984504D088
:100FE000404605F005FD00F009FE002EC3D002AF1B
:100FF00094E80F0087E80F0038460395B047BAE73A
:10100000284607F04FFEB6E7284607F093FEB2E702
:10101000204B70B51E6801F019FE1F4C00253046AC
:1010200005F0E6FC03F060FC1C4B1E6801F00EFEB0
:10103000304605F017FD03F057FC01F007FE0122D2
:1010400023681A7603F050FC01F000FE23689D85AA
:1010500003F04AFC01F0FAFD23685D8503F044FCCF
:1010600001F0F4FD284605F02FFD03F03DFC0C4B8C
:101070001D6801F0EBFD236805B1DD6103F034FC70
:1010800001F0E4FD236800229A76BDE8704003F089
:101090002BBC00BFB0000020B4000020AC0000203A
:1010A000A8000020014B83E803007047DC3F0220CA
:1010B000014B83E803007047E43F0220014B83E8C3
:1010C00003007047EC3F0220704700BF704700BF2D
:1010D0002DE9F04F5C4E8DB03368DA69B3F92250D8
:1010E000D469B4F80CB0834500F29780E18981425D
:1010F000C0F093802168CBEB000B08914FF0FF31DB
:101100000A91BBF1FF3F00F0828092F81880A27C28
:10111000B3F92A10B3F9249018FB02F3084607919B
:101120001F4694F810A005F0CFFCD6F800E008990F
:101130004346DEF838C05246099007FB0B10DEF834
:101140001CE00B97012704904946CDF814C02846AF
:1011500094F812C00297CDF80CC09EF81BC0DFF8BF
:10116000E8B0CDF804C09EF81AE0CDF800E004F035
:101170001BFE0A9F7B1C25D0079941F0020005F059
:10118000A3FCDBF800100B9A43460898D1F838C04E
:1011900002FB0700D1F81CE00127CDF814C0049031
:1011A000524694F812C0494602972846CDF80CC022
:1011B0009EF81BC0CDF804C09EF81AE0CDF800E000
:1011C00004F0F2FD3368DFF88080DB695A7E1B7E15
:1011D0009A4215D9079B022B12D083F0040005F028
:1011E00073FCD8F800302846DB691F7ED97E9A7ED2
:1011F0005B7E07FB01910AFB02524B4404F0DCFFCB
:101200009DF8240005F060FC3368B3F92250627C3D
:1012100015445D840DB0BDE8F08FA1680029F6D0BB
:101220000F88B842F3D3B1F802E08645EFD3C01B74
:101230004968676880B2089701EB800731F920B0F0
:10124000B7F902100A915CE7B4000020044B1B6858
:10125000DB69DB6909B11A7C0A60587C704700BF02
:10126000B400002002230B80704700BFC3699A8935
:101270008A4202D8DA898A4211D2986818B1038862
:10128000994201D20020704742888A42FAD3C91A93
:10129000436833F82100C043C0F3C03070470120D9
:1012A000704700BF2DE9F04F3A4D89B02B68DA69DD
:1012B000B3F92A90D36943B11A88904202D359886E
:1012C000814205D29B68002BF6D109B0BDE8F08FB2
:1012D000841AD3F80480484608EBC40696F802B096
:1012E00005F0F2FB8246286818F834204FF0010E12
:1012F000C769D0F838C0B0F92410B0F922003B7E9D
:101300000790CDF814C07068CDF80CB00490CDF8FB
:1013100008E097F81BE00798CDF804E0BF7E00973F
:1013200004F042FD2B68DA69537E177EBB4223D955
:10133000B9F1020F07931FD092F81BB001F000FB28
:10134000814601F0C7FA03F055F8124B18F834E063
:101350001868079BC169B0F92240CA7EB0F9241011
:1013600020460EFB02420BFB03130BFB071104F09C
:1013700023FF484603F03EF8504605F0A5FB2B68D6
:101380007178D8695A8C807E00FB01225A8409B09A
:10139000BDE8F08FB4000020114B1B6870B4DD690C
:1013A000EB6943B11A88904202D35C88844205D22B
:1013B0009B68002BF6D1184670BC7047821A5E6895
:1013C000AC7E06EBC2035B7813FB04F00029F3D07C
:1013D00016F8323014FB03F370BC0B60704700BF8B
:1013E000B400002001230B80704700BFC06950B1DA
:1013F00003888B4202D843888B4203D2806800283E
:10140000F6D17047012070472DE9F047244F3D6821
:10141000002D3FDD234EC5EB4515DFF88C804FF0E6
:10142000000A3468D8F8009004EB85050C340C35BC
:10143000A4F10803742249461846FEF774FF221FE0
:101440002063A06344F80CAC6263E4607C34A54282
:10145000EED10024254603E082B13A68954213DAC2
:101460000EF09CFB336801351A5919197C349042EF
:10147000F2D10431C8F80010BDE8F08708600431EB
:10148000C8F80010BDE8F08719460431C8F800100C
:10149000BDE8F087034BDFF810801968E9E700BF6B
:1014A0001C01002088410220B4000020F8B5184F2C
:1014B000184B3846184E40F80C3F04F071FA346867
:1014C000C4EB4414A400204600F0D2F8134B22468B
:1014D00000211B68386098474FF0FF3373600EF0AF
:1014E00063FB3368002B0FDD0024254603E062B167
:1014F00033689D4208DA0EF051FB3B6801351A59FA
:1015000023447C349042F2D1F8BD1860F8BD00BF8E
:1015100088410220D1E400081C010020280100209D
:1015200000B9704710B5044601F090FB204608F062
:101530008BFF044603F0D8F9204610BDF8B50546E8
:1015400001F084FB25B9002403F0CEF92046F8BD54
:1015500001F07CFB284608F077FF044603F0C4F94D
:10156000002CF0D0144E2A46144F0021F069736B02
:10157000013003EBC405F06113F83400013003F8C7
:1015800034006D683B6805F1080098472968726B64
:1015900012F83130012B01D9F06930B9013B02F862
:1015A000313003F0A1F92046F8BD0138013BF0616C
:1015B00002F83130F5E700BFF44102202801002095
:1015C00021F00301014B83E803007047F43F022040
:1015D00000B9704770B50D4C054601F037FBEE00C1
:1015E000636B33445968486808F080FD6368626B38
:1015F0000021606A013316446360706002F83510A0
:101600006562BDE8704003F06FB900BFF44102208D
:1016100028B1034AD36B036003B15860D0637047AD
:10162000F4410220F8B5054601F010FB2C68B4B176
:101630000E4E01F00BFBE700736B3B4459684868A2
:1016400008F054FD7368726B0020716A013317440F
:101650007360796002F83400746203F045F9002386
:101660002B60BDE8F84003F03FB900BFF441022011
:10167000F8B58B4E044696F82830002B2FD0033453
:10168000356CF26B24F003040434A54238BF2546C0
:1016900062B152F8043C14469D4204D114E054F85F
:1016A000043C9D4210D02468002CF8D1F368B46B40
:1016B0001C4454F8041C611A0B68002B68D14B6859
:1016C0009D426FDD002408E023680BB1616859601A
:1016D000616801B10B60A24256D02046F8BD714B43
:1016E00001219A6886F8281058680AB982089A6019
:1016F0005A27102220254FF0400E3762802732648F
:101700004FF48072B5644FF400751968C6F850E064
:101710004FF4806EB7654FF4006732664FF4805225
:10172000B5664FF40055A1F11403C6F870E0B76731
:101730004FF4804EC6F880204FF40047C6F888501A
:101740004FF480324FF400350344C6F890E04FF474
:10175000802EC6F898704FF40027C6F8A020022209
:10176000C6F8A8500125B1637363C6F8B0E03261D2
:10177000F060C6F8B8705D607562756008F0B6FC20
:101780000BF0BAFA35637AE723682046F363F8BDB5
:1017900000200DF069F954F8041C611A0B68002B45
:1017A00090D18CE7581BD6F8B8703D4A041DBB4257
:1017B0000C4472D2D2F8B070BB426CD2D2F8A8708E
:1017C000BB4266D2D2F8A070BB4260D2D2F8987009
:1017D0009F425AD9D2F89070BB4254D2D2F8887046
:1017E000BB424ED2D2F88070BB4248D2926F934235
:1017F00043D2376F2A4ABB423DD2976EBB4238D2A2
:10180000176EBB4233D2976DBB422ED2176DBB42CF
:1018100029D2976CBB4224D2126C93420CD2F2684C
:101820007369521B2B44F260736110B944F8045C75
:1018300053E708F05BFCF9E700223768D1F808E0CD
:10184000FF1ACB683760BEF1000F01D0CEF804302C
:1018500013B1C3F800E0E2E706EBC202C2F844E0CD
:10186000DDE70122E9E70222E7E70322E5E70422B8
:10187000E3E70522E1E70622DFE70722DDE70822AA
:10188000DBE70922D9E70A22D7E70B22D5E70C22AA
:10189000D3E70D22D1E70E22CFE70F22CDE700BF1D
:1018A000F4410220F43F022030B1044B5B6B03EBA8
:1018B000C000436858680C38704700BFF4410220EC
:1018C000024A936901339361704700BFF4410220DB
:1018D000084AD169536B013110B4D16103EBC004E4
:1018E00013F83020013203F8302060685DF8044BB3
:1018F00008307047F4410220F8B5584C01F0A6F9C1
:1019000094F82830002B57D0D4F8BC30534A9BBBF6
:10191000D2F8B43083BBD2F8AC306BBBD2F8A43071
:1019200053BBD2F89C303BBBD2F8943023BBD2F8E7
:101930008C300BBBD2F88430F3B9D36FE3B9536F5B
:10194000D3B9E36EC3B9536EB3B9D36DA3B9536DB5
:1019500093B9D36C83B9536C73B96FF00B034049DF
:10196000DA1781FB0313C2EB6313246A04FB03F44D
:1019700002F0BAFF2046F8BD9B68002BF5D000228C
:1019800001E09B6843B159681046914201D90A466B
:1019900008469B68002BF4D10C38B0F5800F034645
:1019A000DDD8226A2E4B02FB00F0A3FB00235C096A
:1019B00002F09AFF2046F8BD2A4B01219A6884F86C
:1019C000281058680AB982089A605A2610222025E1
:1019D00040272662802622644FF48072A5644FF46B
:1019E0000075196827654FF48067A6654FF4006697
:1019F00022664FF48052A5664FF40055A1F11403FE
:101A00002767A6674FF48047C4F880204FF400464C
:101A1000C4F888504FF480324FF400350344C4F8C2
:101A200090704FF48027C4F898604FF40026C4F8F3
:101A3000A0200222C4F8A8500125A163636322619B
:101A4000E060C4F8B070C4F8B8605D60656265605D
:101A500008F04CFB0BF050F9256355E7F4410220E8
:101A60001F85EB51F43F0220024A9369013B9361C9
:101A7000704700BFF441022003680B4A30B40446AB
:101A800053F8085C506B10F83530012B03D9D1693D
:101A900009B10139D1610022013B00F8353010460F
:101AA000226030BC704700BFF4410220034B5B6BE7
:101AB00003EBC00040680830704700BFF4410220CB
:101AC00070B50D46044601F00FF900222B46C1B255
:101AD0002046BDE8704000F001B800BFB0F1004FF3
:101AE0002DE9F04346D0002851DB00254D1B4FF077
:101AF000000EEDB20AB1013DEDB275B36C1EAA4203
:101B0000274F4FF03108DFF89CC0E4B21ED057F8E1
:101B1000246090FBF6F1C9B20A2901F1010906FB24
:101B200011001AD824B9BEF1000F01D05FFA89F173
:101B30000A2901F1300115D01D686E1C1E60297044
:101B40005CB125466C1EAA42E4B2E0D119684E1C75
:101B50001E609CF800600E70D9E71B6800221A70A6
:101B6000BDE8F08319682C464D1C1D60254681F8A0
:101B70000080E7E71C684FF0010E4D1E2D2104EB9D
:101B80000E066FF00040EDB21E602170B2E71C68D7
:101B900001252D26404267191F602670A6E700BF69
:101BA00098610108B8420220C3B2CAB29A1A92B22E
:101BB00010B414B2002C1EDBC1F30722C0F30723BC
:101BC0009B1A9BB21AB2002A12DB090C02FB02F22A
:101BD000C1EB104104FB042089B20CB2002C01DAE5
:101BE00049420CB2A1B25DF8044B01FB0100704701
:101BF0005B421AB2E9E7524214B2DDE700212DE957
:101C0000F041084682B000F04BFF184F01F01EF87B
:101C1000042004F059FF164B43F6FF763D461B693E
:101C2000804634466846DA6C1B6D174416441D44E2
:101C30001C44ADF80070ADF80460ADF80250ADF88A
:101C4000064007F0A9FC48B12346324629463846EB
:101C500004F0B2FA07F032FB0028F5D1404604F058
:101C600033FF02F041FE02B0BDE8F08101C0FFFF8A
:101C7000A40000202DE9F047044682B00D46164628
:101C8000002B37D09A46009651460B9B204626687B
:101C90000A9AB047074618B9384602B0BDE8F0873F
:101CA00006F09AF8618A8046384605F0CDFB013D82
:101CB000384607F0E3F8404607F0E0F8002D1DDD58
:101CC0004FF0000903E007F0D9F8013D16D054F8B1
:101CD0001C6F0023CDF80090414620461A46B047BD
:101CE00006460028EFD1384605F0B2FD304602B076
:101CF000BDE8F08706F07EF88246C4E740461D2125
:101D000006F0BEFEBAF1FF3FC6D000F09FFF06F01E
:101D10008BF860B9BA4502D0384606F0C3FF02F02E
:101D2000E3FD384602B0BDE8F0870028F4D0FFF7A5
:101D3000BDFE80698742F8D1F1E700BF012B17DCB7
:101D40002DE9F04107461C2090460D461E46FFF740
:101D50008FFC0446D0B16DB1056100232046A66119
:101D6000A4F81480E76023606360A360BDE8F0819D
:101D700000207047074B53F826200AB9EDE71A46B2
:101D80001368002BFBD113692361E6E70020BDE84F
:101D9000F08100BFCC420220012B3BDC2DE9F8434F
:101DA00081461C2090460F461E46FFF761FC054603
:101DB00000287FD0414A002F31D00023DFF804E112
:101DC00052F8264003609EF8001007618E4286613B
:101DD000A0F81480C0F80C904360836002DB731C91
:101DE0008EF80030002C5DD021464C68002CFBD1D1
:101DF000D9F80000CB681B6883422CDD09680029F4
:101E0000F8D148B92E4B163628461A6842F82650A3
:101E1000BDE8F883002070472846BDE8F88352F8F3
:101E20002610002930D0084600E018460368002B31
:101E3000FBD10069DFF88CE02B6028619EF8000080
:101E4000AE618642A5F81480C5F80C906B60AB605B
:101E5000CBDB0C46C3E70AD04B6843B31D606B6015
:101E60008D4214BF0B4600234D602B60C9E7B8F1CB
:101E7000010FF1D104E0DC68194623688342EBDBF3
:101E80000B68002BF7D1E7E7DFF838E001609EF838
:101E9000003086619E42A0F81480C0F80C9041602A
:101EA0008160D6DA42F82650D9F80000A9E742F856
:101EB0002650D5E70020BDE8F88300BFCC420220C1
:101EC000B4000020C5420220FFF7A2BB00283DD08D
:101ED00070B48469012C03DD0123184670BC70477F
:101EE0001F4B1A78944221DA1E4D55F824300BB955
:101EF00032E013465A68002AFBD1C268116802E03A
:101F00001B68002BE8D0DA6812689142F8DB10D029
:101F10005A68F2B110604260984214BF1A4600221B
:101F2000586000230260184670BC7047621C1A702B
:101F3000DAE7828A012AEBD104E0D66813463268D8
:101F40009142E5DC1A68002AF7D1E1E7012318463F
:101F5000704745F82400DFE745F82400BDE700BFDF
:101F6000C5420220CC42022000284DD02DE9F0418C
:101F7000DFF89CE0254F9EF80060BC4601E0284653
:101F80003DB384690568012CF9DCB44201DB661CB1
:101F9000F6B257F824300BB933E013465A68002ADA
:101FA000FBD1C268116802E01B68002BE7D0DA6839
:101FB00012688A42F8DC10D05A68A2B11060426000
:101FC000984214BF1A460022586002602846002D2D
:101FD000D7D18EF80060BDE8F081828A012A0CD04A
:101FE0005A68002AEAD147F82400E9E7D2F80C80C1
:101FF0001346D8F800208A42DEDB1A68002AF5D1A1
:10200000DAE74CF82400BAE7704700BFCC42022060
:10201000C54202200F4A816952F8213098420AD005
:1020200042680AB103681360036803B15A60002371
:10203000036043607047036842F821302BB10022EF
:102040005A604268002AEED1F0E74268002AEAD1DD
:10205000EDE700BFCC4202200020704701280EDCD3
:10206000084B53F8200058B1C3681B681BB908E03F
:10207000C3681B6823B100680028F9D170470020AD
:1020800070477047CC4202202DE9F84307460DF017
:1020900087FDDFF86C9007440DF082FDDFF8648067
:1020A0003E1A002E22DD00F081FBD9F800309E425E
:1020B000A8BF1E4600F0CAFDD8F80040FFF700FC9C
:1020C000B4B1254602F010FC013DFBD130460DF0C5
:1020D00063FD00F0BBFD013CFBD1FFF7C5FC02F046
:1020E00003FC0DF05DFD3E1A002EDCDCBDE8F8833C
:1020F00030460DF051FDFFF7B7FC02F0F5FBF0E7BD
:10210000B80000208C4102202DE9F04F4A4D83B0E9
:10211000044600F09BFD00F02BFC2B680646B3F94B
:10212000228000F083FC2B681FFA80F99A8CC9EB9F
:10213000020212B29A84217800294FD0B6B22F46FB
:1021400047F6FF71204603F087FA01468346204692
:1021500003F042FA29688B8D03F00303012B5AD058
:10216000022B5CD01FFA80FA4FF0000E4B8C0AF164
:10217000FF3CB1F92420CEEB0303ADF80220013A75
:102180009BB2B0186A460FFA83FE6344ADF80600AE
:102190002046A1F822E05946ADF800E0ADF8043041
:1021A00002F0ECFD2B682046BDF8022059469A84C7
:1021B00002F070FA235C04440A2B1BD00D2B19D0BB
:1021C000BDF800003B688244A3F822A022781AB12F
:1021D00062780134002AB3D1B3F92420998D914457
:1021E00021F00302A3F824909A8502F07DFB03B04E
:1021F000BDE8F08F2B689A8D02F00302013A012AA4
:1022000016D8A3F8228022780A2AE0D19A8C324488
:102210009A842278DBE71FFA80FEF246A6E70028C0
:1022200003461FFA80FAB8BF431CC3F34F0E9DE765
:102230001A8C5A84E7E700BFB400002070B50E4640
:102240001546044600F002FD054B1B685E849D8424
:1022500014B12046FFF758FFBDE8704002F044BBC0
:10226000B400002020B3F0B50C4683B005461646F6
:1022700000F0ECFCD4B1204606F0F0FD074638B182
:1022800002462146684603F05FFA684606F0E6FD1E
:102290003246214647F6FF73284602F0D1FD384604
:1022A00006F0DCFD02F020FB03B0F0BD2746EFE7AF
:1022B000704700BF2DE9F04F91B080461E460F4693
:1022C000914600F0C3FC674B0EA81C68E56C246DBA
:1022D00005EB080305EB0902E1193444029301926E
:1022E00007910894ADF83830ADF83C20ADF83A10BD
:1022F000ADF83E4007F050F9002800F09780019BB0
:10230000029A1A99C2EB030B9DF86820C1F30724C7
:102310001B99BBF1000F5B46C1F307271A99B8BFA1
:102320000BF101030BFB02FEC1F307401B995B108D
:102330009DF86CC0C1F307461A9903EB0E05090E10
:102340000A950BFB04353C1B03940BFB0034301A3D
:102350000BFB01335E460B950D931B9B0C94C1EB5D
:10236000136304900593C2EB0C03069300F0E8FAA4
:102370001A9B1B9A099093426AD0002E52D0029D5C
:10238000019A95425CDC0AAF86464FF0010B97E854
:10239000800706E00BF1010B0135019BA646AB421D
:1023A0002FDB70469AFBF6F499FBF6F197FBF6F3F8
:1023B00098FBF6FC2206059C43EA0C23A24442EA61
:1023C0000144049A1C43029B9144069AAB42174471
:1023D000039A9044E0DA7445DCD004F043FBBBF18F
:1023E000010FCBEB0500089B05F1FF32079922D0C6
:1023F00003F0E2FE0135019B4FF0010BA646AB4214
:10240000CFDA204604F02EFBBBF1010F1AD0019A5F
:10241000089BCBEB02000799013003F0CDFE099831
:1024200004F020FB06F04AFF00289FD102F05CFA7E
:1024300011B0BDE8F08F1A46681E03F095FEABE7B9
:1024400004F010FB089A0799019803F08DFEE6E767
:10245000184604F007FB089B019A0799029803F0BD
:10246000ABFEDCE7B40000202DE9F04F91B08046D0
:102470001E460F46914600F0E9FB674B0EA81C680C
:10248000E56C246D05EB080305EB0902E119344402
:102490000793089202910194ADF83830ADF83C20D2
:1024A000ADF83A10ADF83E4007F076F8002800F09D
:1024B0009780019B029A1A99C2EB030B9DF8682042
:1024C000C1F307241B99BBF1000F5B46C1F307273B
:1024D0001A99B8BF0BF101030BFB02FEC1F30740D1
:1024E0001B995B109DF86CC0C1F307461A9903EB6A
:1024F0000E05090E0A950BFB04353C1B03940BFBE0
:102500000034301A0BFB01335E460B950D931B9B79
:102510000C94C1EB136304900593C2EB0C03069378
:1025200000F00EFA1A9B1B9A0990934269D0002E74
:1025300052D0029D019A95425BDC0AAF86464FF06D
:10254000010B97E8800706E00BF1010B0135019BB9
:10255000A646AB422FDB70469AFBF6F499FBF6F1E8
:1025600097FBF6F398FBF6FC2206059C43EA0C2346
:10257000A24442EA0144049A1C43029B9144069AF5
:10258000AB421744039A9044E0DA7445DCD004F07F
:1025900069FABBF1010FCBEB050105F1FF33089A96
:1025A000079822D003F008FE0135019B4FF0010B84
:1025B000A646AB42CFDA204604F054FABBF1010F35
:1025C00019D0019B089ACBEB03010798013103F066
:1025D000F3FD099804F046FA06F070FE00289FD13A
:1025E00002F082F911B0BDE8F08F691E03F062FDC0
:1025F000ACE704F037FA089A0199079803F05AFDFE
:10260000E7E7184604F02EFA019B089A029907980A
:1026100003F0D2FDDDE700BFB4000020F0B5144F99
:1026200083B006460D46144600F010FB3B68684632
:10263000196DDA6C0E441544144433B2ADF80050F1
:10264000ADF80440ADF80230ADF8063006F0A4FF56
:1026500050B13B682246314628465B6E1B6898475E
:1026600006F02CFE0028F4D102F03EF903B0F0BDD4
:10267000B400002070B5134E82B005460C4600F041
:10268000E5FA33686846DA6C1B6D15441C442AB2BF
:1026900023B2ADF80420ADF80020ADF80630ADF857
:1026A000023006F079FF48B13368214628465B6E58
:1026B0005B68984706F002FE0028F5D102F014F995
:1026C00002B070BDB40000202DE9F04782B004468E
:1026D00089469246984600F0B9FA1E4B68461F6834
:1026E0003E7EFD6C013E3F6D2C445544B2B2B94470
:1026F000B844A61A5119C2EB09034244ADF8006070
:10270000ADF80410ADF80230ADF8062006F044FF35
:10271000D8B109F1010708F1FF362A46494620469B
:1027200003F0C8FC2A464146204603F0C3FC32466B
:102730003946204603F018FD32463946284603F054
:1027400013FD06F0BBFD0028E7D102F0CDF802B082
:10275000BDE8F087B400002070B582B0064614468C
:102760000D4600F073FA104B68461A68D36C126D70
:102770001E441544144433B2ADF80250ADF806407F
:10278000ADF80030ADF8043006F006FF40B1224647
:102790002946304603F0E8FC06F090FD0028F6D10B
:1027A00002F0A2F802B070BDB40000202DE9F041A3
:1027B0000025124F124EDFF84C803C681CB1A04738
:1027C000041C18BF012405F07DF93368002818BFE8
:1027D00001244BB1984738B1D8F8003013B1012427
:1027E00098473CB10125E8E7D8F80030002BF7D135
:1027F000002CF7D12846BDE8F08100BFF04202204E
:10280000F4420220EC420220F0B583B0074616469F
:102810001C460D4600F01AFA104B68461B68DA6C2D
:102820001B6D174416441D441C44ADF80070ADF8F0
:102830000460ADF80250ADF8064006F0ADFE48B1B8
:10284000234632462946384603F0B6FC06F036FDEC
:102850000028F5D102F048F803B0F0BDB400002024
:10286000F0B583B0B0F90070B0F90260B0F904506F
:10287000B0F9064000F0EAF9104B68461B68DA6CC4
:102880001B6D174415441E441C44ADF80070ADF890
:102890000450ADF80260ADF8064006F07DFE48B188
:1028A00023462A463146384603F086FC06F006FDEC
:1028B0000028F5D102F018F803B0F0BDB4000020F4
:1028C000034B082153F82000C3689B6A184700BFD8
:1028D000CC42022010B500F0B9F903F0ADFC03F0D2
:1028E0004BFE044602F000F8204610BD10B5044629
:1028F00000F0ACF9054B002120461B68DB695B68E2
:102900009847044601F0F0FF204610BDB4000020B7
:1029100038B504460D4600F099F9064B2946204685
:102920001B68DB695B689847044601F0DDFF2046C1
:1029300038BD00BFB400002008B105F025BA7047CB
:1029400010B500F083F903F07FFC03F015FE044698
:1029500001F0CAFF204610BD10B500F077F9034B17
:102960001B681C7C01F0C0FF204610BDB400002095
:1029700010B500F06BF9044B1B68DB695C7E01F05D
:10298000B3FF204610BD00BFB400002010B500F01A
:102990005DF9054B1B68DB691C7EDB7E14FB03F4D1
:1029A00001F0A2FF204610BDB400002070B504461F
:1029B0000E46154600F04AF9204631462A4603F0F5
:1029C000B1FC044610B1002333602B6001F08CFF92
:1029D000204670BD38B505460C4600F037F9064A6A
:1029E000064BB2F90020B3F900302A602360BDE83D
:1029F000384001F079BF00BFBA420220BC42022039
:102A000010B5044602F050FE01462046BDE81040D5
:102A100002F0E2BD044B3422352061219A70187017
:102A200018461971DA7070479C00002010B500F04C
:102A30000DF90F4B1A68938D03F00C03082B08D087
:102A40000C2B06D0042B0BD0002401F04DFF2046A8
:102A500010BDD3691C7E01F047FF6408204610BDFD
:102A6000D3691C7E01F040FF013C204610BD00BF31
:102A7000B4000020027EC07E02FB00F0704700BF61
:102A8000024B53F820301B6918687047CC42022073
:102A9000024B53F820301B6958687047CC42022023
:102AA00038B505460C4600F0D1F8044B1B685D8430
:102AB0009C8401F019FF002038BD00BFB400002045
:102AC00090B583B000AF544A534B1B6823F0010309
:102AD0001360524B1B68C3F30A0340F2494293420E
:102AE0000CBF01230023DAB24C4B1B68C3F30A036B
:102AF00040F251418B420CBF01230023DBB2134350
:102B0000DBB21946454B1B68C3F30A0340F252423D
:102B100093420CBF01230023DBB20B43002B10D0E8
:102B20003F4B01221A6000BF3D4B1B68002BFBD1BD
:102B30003C4B3D4A1A603B4B1B683C4A934218D0C1
:102B4000FEE73B4B1B68C3F30A03B3F58A6F10D152
:102B5000384B01221A6000BF364B1B68002BFBD19B
:102B6000354B314A1A60344B1B68304A934200D0CF
:102B7000FEE702F0C1F8314B2E221A700DF012F868
:102B80002F480BF033FA0CF07DFD786003F044FC25
:102B90000346002B0CBF01230023DCB203F082FCB0
:102BA0000346002B0CBF01230023DBB22343DBB21F
:102BB000002B09D003F046FC044603F089FC0346D1
:102BC0001946204603F07AFF0021002001F04EFC58
:102BD00005F0D0F9FEF718FC1A4B1B68002B12D039
:102BE0000DE0184B1B681B68002B03D0154B1B68AE
:102BF0001B689847134B1B685B68124A1360114BA4
:102C00001B68002BEDD1104B01221A707B6818460F
:102C10000C37BD4690BD00BF002000E0002004E05E
:102C20000830024000300240C2A507F4CDB5E8B537
:102C30000010005C084C0258004C0258B8420220B8
:102C40000840022080400220C44202202DE9F041C9
:102C5000224D6B6823B10CF0A1FFAB68984204D001
:102C60000CF0B4FF0CF09AFFA8606B680133012BE5
:102C70006B6001D0BDE8F081194F3B68002B28DD67
:102C80000024264605E03AB301363B687C349E4278
:102C90001FDA0CF083FF2B681A5923449042F2D1BB
:102CA0007B68B342E6D0002B10DBC3EB43132A68EA
:102CB00002EB8308FFF7D0F92A680A4B1444C8F8DE
:102CC0007800221DA06F1A60FFF74EF97E60BDE804
:102CD000F08100242646E3E71860E1E788410220FE
:102CE0001C010020B400002080EAE0730246A3EB40
:102CF000E073092B1FDD632B20D9B3F57A7F20D336
:102D000042F20F718B421FD917498B421FD91749C5
:102D10008B421FD916498B421FD916498B421FD9A6
:102D200015498B428BBF0A20092009230823002A5A
:102D3000B8BF981C704701200023F8E70220012348
:102D4000F5E703200223F2E704200323EFE7052041
:102D50000423ECE706200523E9E707200623E6E73E
:102D600008200723E3E700BF9F8601003F420F00D2
:102D70007F969800FFE0F505FFC99A3B10B582B039
:102D800028B9134B1B681C6E14B902B010BD044661
:102D9000FFF75CFF2046FEF79BFD02AB446943F85A
:102DA000080D1846FEF768FE1CB901F09DFD02B043
:102DB00010BD204602ACFEF78BFD826844F8040D7E
:102DC000936898472046FEF757FE01F08DFDEEE729
:102DD000B400002000B97047014A114600F002B863
:102DE00001F0FFFF2DE9F047DFF8F88084B00C46D2
:102DF00015460646FFF72AFF002001F007FBD8F82A
:102E00000030814630461F6EFEF762FD0368009079
:102E1000986901F0C3FA324B82469C42009B53D022
:102E20001A895B89013AADF80840013BADF80A50B8
:102E300022442B44ADF80C20ADF80E3004F038FBE2
:102E40006846FEF719FE02A806F0A6FB48BB5046EE
:102E500001F0A4FAFFF7FAFE002F3DD0D8F80030B9
:102E60001B6EB3BB04F0B4FC3846FEF731FD04AC76
:102E7000D8F8003044F80C0D1F660068FFF726F8FC
:102E80002046FEF7F9FD03F08BFE03F0DDFD01F0B7
:102E90002BFD484601F0BAFA01F026FD04B0BDE86A
:102EA000F0872A462146304600F0B0FC06F006FACC
:102EB0000028CCD02A462146304600F0A7FC06F078
:102EC000FDF90028EDD1C2E7B3F90440B3F906508B
:102ED000A6E701F055FAC5E701F052FAD7E700BFBF
:102EE00001F0FFFFB40000202DE9F04385B0064655
:102EF000904699460F46FFF7A9FE1C4A1C4B1268E4
:102F0000507C53F8204001E02468FCB1E3681A6863
:102F1000042AF9D1DB6A0121204698470546D8B139
:102F20002469A3689847013018D00C994B46029445
:102F30004246009130460195394600F0E3FA0446D6
:102F400001F0D2FC204605B0BDE8F083FFF786F81B
:102F5000044648B1C368DDE70446F1E70C9B054C25
:102F600043F001030C93E0E72046ECE7B4000020B7
:102F7000CC420220F060010800B9704710B582B061
:102F80000446FFF763FE104B1B681B6E9C4217D074
:102F90002046FEF79DFC4369019063B90068FEF787
:102FA00093FF01A8FEF768FD2046FEF711FB01F034
:102FB0009BFC02B010BD184601F07CFC0198EDE7C7
:102FC00001F0DEF9E4E700BFB40000202DE9F04F86
:102FD00087B0044692461D468946FFF737FE574B99
:102FE0001A68574B577CDB573846012B40F39A80C1
:102FF00003F018FA0646384603F05AFA0746002C42
:1030000000F08D8005A904A8FFF7E4FC049A059B55
:103010001644B4F900201F44B4F9023022EAE272E7
:10302000013E23EAE373013F114602921846B4F9C8
:10303000042003939642D4BFC1EB0601C1EB020109
:10304000B4F9063002460E469F42D4BFC2EB0702D7
:10305000C2EB030201361746013705B97D42002E47
:103060004FDD002F4DDD109B3246039900932B4618
:103070000298FFF739FF8046002848D000F098F802
:103080008742064604D02D4B1B68986C002851D10E
:1030900040463D460024DFF8ACB000F095F90EE064
:1030A000AD1BACB950463444C847DBF80030FF20B4
:1030B00003B198474046FFF78DFEA74212DDAE42AE
:1030C000EEDD2946404600F05FF9AD1B002CE9D04B
:1030D000039B404602991A1900F0A6F94046FFF7F3
:1030E0004DFEDFE74046FFF747FF002000F06CF998
:1030F000B74206D0114B1B68986C10B1332106F013
:1031000043FF01F0F1FB002007B0BDE8F08F50460F
:10311000C84701F0E9FB012007B0BDE8F08F039438
:1031200002949AE703F028F90646384603F04EF970
:10313000074664E7322106F027FFA9E7B400002024
:10314000C8420220CC41022030B5044683B098B179
:10315000FFF77CFD2046FEF7BBFB036802AD1B6951
:1031600045F8040D9B68984703F03AFE044628464C
:10317000FEF782FC01F0B8FB204603B030BD00BF73
:10318000A0B110B5044682B0FFF760FD2046FEF7FF
:103190009FFB02AB00F1180443F8040D1846FEF73C
:1031A0006BFC01F0A1FB204602B010BD704700BFD0
:1031B00010B5044682B0FFF749FD7CB12046FEF70A
:1031C00087FB02ABB0F90A4043F8040D1846FEF73E
:1031D00053FC01F089FB204602B010BD044B1B6874
:1031E0001C6E002CEAD101F07FFB204602B010BD1E
:1031F000B40000202DE9F04F804687B0002758E04A
:10320000002E7ED104F0F6FD804500F09A80584BE8
:1032100001264946224602935846564B0096019392
:103220002B4600F06FF981464046FEF751FB0346FE
:103230000590C0F82490B9F1000F79D0826A05A8F2
:10324000DFF840B142F480329A62FEF715FC48463E
:1032500000F0BAF882463046474E01F09DFB4846E2
:10326000FFF78EFF454B05FB04F2454C19789200A1
:103270003568A84740462568CBF8008004F000FE7A
:103280002060404606F094FD002225601046CBF8F1
:10329000002001F081FB504600F096F84046FEF712
:1032A00005FC406AB0FA80F35B090137042F22DC89
:1032B0000BB34046FEF70CFB034605A8B3F900B07C
:1032C000B3F90290B3F90440B3F90650CBEB040410
:1032D0000593C9EB05055E6A0134FEF7CDFB0135A8
:1032E000002DC8BF002CD4BF0123002388DC013788
:1032F0000020042FDCDD08B100F0D2F807B0BDE8F3
:10330000F08F3046FEF7E4FA034606A8B3F90650FC
:1033100040F8083DB3F90440FEF7AEFBA94501D1E2
:10332000A345BBD04A465946304600F07DF8B5E784
:1033300005A8FEF7A1FB404606F03AFD3346484695
:10334000B3E703F053F8064603F096F8B44202DC04
:1033500085427FF75CAFB442A8BF34468542A8BF20
:103360000546214640462A4605F046FD4FE700BF88
:10337000F0600108DCBB010828010020D0410220D8
:10338000F04102207847022030B50D4683B028B9BD
:103390000C4B1B681C6E14B903B030BD0446FFF71C
:1033A00055FC2046FEF794FAB0F90A300190AB4282
:1033B000C8BF458101A8FEF75FFB01F095FA03B095
:1033C00030BD00BFB4000020F0B5164F83B00446F6
:1033D000FFF73CFC3B681E6EE4B1C6B904F0F8F997
:1033E0002046FEF775FA02AD3B6845F8040D1C66F1
:1033F0000068FEF76BFD2846FEF73EFB03F0D0FBAE
:1034000003F022FB01F070FA304603B0F0BD00F08B
:10341000B7FFE3E700F0B4FF01F066FA304603B00F
:10342000F0BD00BFB400002070B50D4682B0164656
:1034300028B91A4B1B681C6E14B902B070BD044643
:1034400036B22DB2FFF702FC2046FEF741FAC680E5
:103450008580009003F0F8FA009B586930B96846FF
:10346000FEF70AFB01F040FA02B070BDFEF730FA39
:10347000009B0190B3F90820B3F90A308280C38021
:1034800013B10AB10580468001A8FEF7F5FA684637
:10349000FEF7F2FA01F028FAE6E700BFB4000020D8
:1034A00000B9704770B5044684B0FFF7CFFB2046E3
:1034B000FEF70EFA014601A8B1F90460B1F9065011
:1034C0000A894B89324401912B44ADF80860013AD6
:1034D000ADF80A50013BADF80C20ADF80E30FEF708
:1034E000CBFA02A806F058F840B12A4631462046E9
:1034F00000F06EF905F0E2FE0028F6D101F0F4F9D3
:1035000004B070BD2DE9F04FDFF82C8187B0824602
:103510008B46D8F8000017461E461299437C0022BD
:103520001198FEF70BFC00284DD0036905469B68F7
:10353000984703F055FC00FB07F48146FEF7DCF9E1
:10354000109B073413F001034FEAD4043FD0002E40
:103550002CDD002B42D004FB06F01830FDF7E0FF15
:10356000024668B30023029310460392FEF7B0F9B7
:10357000029A034606A8A3F804A0A3F806B01F8188
:103580005E81DC60C3F810905A6140F8043D1D6014
:10359000FEF772FA129AD8F800302A61039A1046A0
:1035A000AA605B7CAB6107B0BDE8F08F002C34D122
:1035B000204676428642A8BF064693B3002ECADC58
:1035C0002846FEF781FC002007B0BDE8F08F0028F8
:1035D000B8BF0330801000EB4000B8E700933A46D4
:1035E00033465946504601F0D5F8029004FB06F0E8
:1035F0001830FDF7A3FF02460028B5D128460392F4
:10360000FEF762FC029B002BDDD01846FDF7E0FFC1
:10361000039A104607B0BDE8F08F1838B0FBF4F0FD
:10362000C7E700933A4633465946504601F0B2F890
:10363000002E0290DADCC3E7B40000202DE9F04F41
:10364000DFF880918BB05D4BD9F800C0DFF878814E
:103650009CF811E053F82E40D8F80030D4F810E070
:10366000002B00F0A6801646DCF8602007460D46C9
:10367000002A75D0E2681268072A78D0504AC2EB57
:103680000E02B2FA82F25209002A70D03846FEF7D2
:103690001FF903460AA8B3F908B040F8083DB3F98A
:1036A0000AA00BEB0504DB68013C0593FEF7E4F987
:1036B000D9F80010B1F90C30B1F90800E41A002C67
:1036C000CCBFC4EB0B045C4685425EDB0023002CC0
:1036D00043DD0AEB0600B1F90EE00138CEEB000045
:1036E0000028C8BFC0EB0A0AB1F90A00B04247DCA3
:1036F0000021BAF1000F079306912EDD3846FFF73F
:103700003FFD079BD9F80020069901FB0B31136E92
:1037100000EB8107002B3CD01846FEF7D9F8024693
:103720000AA8B2F90410B2F906306D1A40F8042D57
:10373000F31AA900D56801F1180605FB03661644C3
:10374000FEF79AF94EB1059B224600953946019342
:1037500030465346D8F80040A0470BB0BDE8F08F84
:10376000E2681268B2FA82F25209002A8ED17346D8
:103770003246294638460BF08BFD0BB0BDE8F08F82
:10378000811B0646C1EB0A0AB3E7431B0546E41A50
:103790009DE7507C4FEA8B02DFF830E03B46029217
:1037A0002946CDF804A032460094DEF80040A04738
:1037B000D3E773460BF06CFDCFE700BFCC4202208D
:1037C000F0600108B4000020D8420220D442022058
:1037D0002DE9F04182B00F4690460646FEF778F894
:1037E000034602AC16211D68002044F8043DEB6836
:1037F0005B6A984705462046FEF73EF91DB14246F2
:1038000039463046A84702B0BDE8F08100B970479C
:103810002DE9F04FA3B08B4692460446FEF758F8C8
:1038200022AB456943F81C0D1846FEF725F92046E2
:10383000FFF78AFC0828814640DD002D3ED1204656
:10384000FEF746F822AA0346B0F9081042F8100D18
:1038500010460D92B3F90A200A9109921968DA68A4
:103860000E690B930E92FEF707F992489249006891
:10387000D6F80480407C51F820100D692B680C9319
:10388000FFF71EF808280B9B14D910288BBF2022A5
:103890001022042702270B92AE4200F0F882B9F101
:1038A000200F00F0B381B9F1100F00F0458123B073
:1038B000BDE8F08F082201270B92EDE700210123DC
:1038C00020467C4E20910DF188080B9121930A939C
:1038D000FDF7FEFF074630683A68FB68B7F9081045
:1038E0001269139314913B69B7F90A10407C09934C
:1038F000169148F8147D5568D7F81490FEF7E0FF4C
:1039000032680E90507CFFF7C3F807464046FEF73A
:10391000B3F8099A0A9B082A0B9940F29D80102A55
:1039200013460A918CBF042302230C93BD4200F07E
:10393000C1813368587CFFF7A3F8149B06469800B2
:10394000FDF7EEFD10900028B1D02046FFF718FCDF
:103950000446B9F1000F00F088804846FDF7B8FF33
:10396000169B1E90002B40F3A1810023DDF83880C8
:10397000CDF834A00B93139BCDF848B0E318159302
:103980001FAB19460F93836800225B691F920B9A45
:103990009847159B139A04469B1A0E93149B8342D7
:1039A00000F0F680099B012B00F08880002842D0AF
:1039B0001CAB11931098FDF78BFF099B07461C90D9
:1039C000082B1F9A65D90C9BA3460E99824602FBD1
:1039D000031939F8020BA847B047BBF1010B4AF8AD
:1039E000040BF6D1B8F11F0F04D8384642462146E1
:1039F00000F0E8FF0A9901231F98224605911299C9
:103A00001C9F08440021019300930391CDF8088086
:103A10000D99049702F0C8F91198FEF72DF81F9B35
:103A20001E981C440B9A83680F991F945B699847F2
:103A300004460028BED1159A13990B9B0A44013302
:103A400015920D9A0B9301320D92169A9A4200F03C
:103A50002D811E980F9996E7012A03D120AB0C9275
:103A60000A9363E70C930A9160E701250A9B139A76
:103A70000999059304905846039202915146169B6A
:103A8000149A0195009502F08FF91098FDF7A0FDAA
:103A90000DE70C9BA2460E99814602FB031B1BF807
:103AA000010BA847B047BAF1010A49F8040BF6D157
:103AB00098E700BFB4000020CC4202200028BAD012
:103AC000CDF8608019960B9F0A9EDDF83880DDF8EE
:103AD0003490DDF848A0DDF83CB017951192DDF880
:103AE0007CE02246119D01230EF007004946039514
:103AF000012506900AEB0E00BEF1000F0596029517
:103B0000B8BF0EF1070E0195009508EBEE0ECDF84B
:103B100010E003F057F81F9B1E983A461C44594684
:103B200083681F945B69984704460028D7D1179D86
:103B3000DDF86080199E7EE70A9B03FB07F0FDF726
:103B4000EFFC109000283FF4B2AEFDF7C1FE2090CC
:103B50002046FDF7BDFE00F118031E900E932B6961
:103B6000002B00F0A6817369002B00F0A281B0F950
:103B700008008000FDF7D4FC1190002840F0BA81C5
:103B80001F900D98FDF778FF20A8FDF775FF7CE7E3
:103B90001098FDF79DFE099B81461C90082B149FF1
:103BA0000446DDF838A028D93AF8020BA847B047F8
:103BB000013F44F8040BF7D1B8F11F0F04D8484671
:103BC0004246149900F0FEFE22AB12980D991A4657
:103BD0000A9B059300230393012352F818EDCDF8B7
:103BE000088017460193149A0093CDF810E002F074
:103BF000DBF83846FDF740FF1DE71AF8010BA84730
:103C0000B047013F44F8040BF7D1D5E70A9B07FB07
:103C100003F0FDF785FC0E9000283FF448AEFDF759
:103C200057FE20902046FDF753FE1E902C6900F1B0
:103C30001808002C00F0EB800A9A5C4601260A95D1
:103C40004FEA82099346CDF83090DDF8249017E0D2
:103C5000042F21D0012F15D00B9B0020209D514611
:103C60000293012305905A460390204601969A44F8
:103C70000096049502F098F8B9F1010900F0E88087
:103C8000022FE5D10C9D40463B465A46A8440A9D6A
:103C900020992D69A847DFE70C9B40460A9D5A46AC
:103CA000984420993B462D69A847D5E71EA8FDF703
:103CB000E3FEEAE62046FFF763FA8046B9F1000F1B
:103CC00000F0D4804846FDF703FE169B1E90002BA3
:103CD00040F3C88000261FABCDF834A00125B146C3
:103CE000DA461F4683683246CDF87C9039465B69D8
:103CF0009847149B0446834231D0099B012B57D02F
:103D000020B30D9B0B9603EB060B1F9801230C9918
:103D10000A9A01FB008E099E13995044059222468F
:103D200003915946CDF810E002960195009502F0F6
:103D30003BF81F9B1E9839461C440B9A83681F94BE
:103D40005B69984704460028DFD10B9E139B013620
:103D50009844169BB34240F385801E98C2E7CDF885
:103D60002C80B346984600E0A3461E980BF1010450
:103D70003946836822465B6998478045F4D00A9AA1
:103D8000C6EB0B03DDF82C805046059201330D9AEB
:103D9000CDF810809119139E099A0396029201950D
:103DA000149A06FB03880095264601F0FDFFD0E734
:103DB0000028CBD00D9B0B9603EB060BDDF87CE0C7
:103DC00022460A9E01230EF00700594605960690EA
:103DD0000AEB0E00BEF1000F139E0295B8BF0EF164
:103DE000070E0396019508EBEE0E0095CDF810E056
:103DF00002F0E8FE1F9B1E9839461C440B9A83680C
:103E00001F945B69984704460028D7D19DE7A146D7
:103E10000125099E0123022F51460A9A58460AEBB2
:103E2000030E00F0A981042F00F07D819F4200F075
:103E300052810B9CF246CDF814900294209CCDF850
:103E40000C9001950095049401F0AEFF013EE1D184
:103E50000D98FDF711FE20A8FDF70EFE0E98FDF758
:103E6000B7FB24E51EA8FDF707FE20E501240A9B09
:103E7000139A09990593049058460392029151466A
:103E8000169B149A0194009401F08EFF0FE50E9A90
:103E90000124183300250392514604935846099B88
:103EA000CDF808900A9A05950194009401F07CFFE2
:103EB000FDE40125DDF82890099E0123022F5146DB
:103EC0004A4658460AEB030E00F0D480042F00F057
:103ED000A0809F426DD0002401950095F246059484
:103EE00003940B9C0294209C049401F05DFF013E1E
:103EF000E3D146E6FDF7ECFC1F9000283FF441AE0D
:103F00000A9A0124CDF828B04FEA420990460C9550
:103F1000CDF83C90B146DDF838B017E0042F2ED034
:103F2000012F28D00B9B0020209D51460293012396
:103F30000590424603909A44019400940A9804958F
:103F400001F032FF099B013B09932BD0022FE5D1F1
:103F5000209B1E463B4642461F995846D9F81450AE
:103F6000A8470F9D31463B46AB440C9D42461F98E7
:103F70002D69A847D6E7209B1E460223EBE7209B2E
:103F800042460F9E58461D461F990223B344D9F856
:103F90001460B04729460C9D3B4642461F982D6948
:103FA000A847BFE71FA8FDF767FD1198FDF710FBB5
:103FB000E7E50A9B444609965D000C9E0C95209D02
:103FC000DDF83880DDF8289038F8020BA047B047BC
:103FD000B9F1010905F8010BF6D10E9D01230B98EB
:103FE0005146AE460C9D02905846AE44209DCDF8F9
:103FF00014909A440A9ACDF80C9001970097049572
:10400000CDF838E001F0D0FE099B013B0993D6D1F1
:10401000B7E50A9B0125099644465E000C9F0C9665
:10402000209EDDF83880DDF8289038F8020BA04794
:10403000B847B9F1010946F8040BF6D10E9E0123E9
:104040000B985146B6460C9E02905846B644209EA8
:10405000CDF814909A440A9ACDF80C9001950095E9
:104060000496CDF838E001F09FFE099B013B0993CF
:10407000D6D186E50A9B0125099644465E000C9F31
:104080000C96209EDDF83880DDF8289038F8020B79
:10409000A047B847B9F1010926F8020BF6D10E9EE8
:1040A00001230B985146B6460C9E02905846B644E2
:1040B000209ECDF814909A440A9ACDF80C90019560
:1040C00000950496CDF838E001F06EFE099B013BA7
:1040D0000993D6D155E595000C9C09960C95209D29
:1040E0004646DDF8289056F8040BA047B9F10109BF
:1040F00005F8010BF7D10B980123209E5146029041
:104100005846CDF814909A440A9ACDF80C9001972D
:10411000009704960C9D01F047FE099BA844013BC3
:104120000993DCD194E60996012596000C9C0C9627
:10413000209E4746DDF8289057F8040BA047B9F1B8
:10414000010946F8040BF7D10B980123209F514633
:1041500002905846CDF814909A440A9ACDF80C90E3
:104160000195009504970C9E01F01EFE099BB0443A
:10417000013B0993DCD16BE60996012596000C9C66
:104180000C96209E4746DDF8289057F8040BA04770
:10419000B9F1010926F8020BF7D10B980123209FF2
:1041A000514602905846CDF814909A440A9ACDF898
:1041B0000C900195009504970C9E01F0F5FD099B6C
:1041C000B044013B0993DCD142E600BF094B1A6AB7
:1041D000002A18BF002003EB800210B49469002C61
:1041E00004DB4FF0FF3443F8201094615DF8044B7A
:1041F000704700BFA440022058B311B30AB3B1F90D
:104200000030F0B5B2F90050B2F902E0B1F9024065
:104210009D42B2F90470B2F90660A8BF1D46B1F91B
:1042200004207445B1F90630A8BF7446BA4205802F
:10423000B8BF3A46B3424480B8BF33468280C38099
:10424000F0BD002908BF11460A684B680260436050
:104250007047704778B189B2C38892B270B406884B
:10426000448885880E4414441A44294406804480B6
:104270008180C28070BC704710B5FEF7E7FC0D4A24
:10428000136851688B420FD00B4CA3424FF00104CE
:1042900093E8030014BF0833503B136004F02EFB77
:1042A00000F022FB204610BD002400F01DFB20463C
:1042B00010BD00BF140100207C410220F0B5164C57
:1042C000059F2568069CB5F908E0B5F90C607045B6
:1042D000B8BF7046B242A8BF324690421ADCB5F968
:1042E0000A60B5F90E50B142B8BF3146AB42A8BF23
:1042F0002B468B4203DAF0BD25682DB12C46E568CC
:104300002D6835F00405F7D106940597BDE8F04017
:1043100002F03CBAF0BD00BFB4000020B0F90220AA
:10432000B1F906309A4214DCB1F90220B0F9063036
:104330009A420EDCB0F90020B1F904309A4208DC50
:10434000B0F90400B1F900308342CCBF0020012055
:1043500070470020704700BF08B5034B0146742228
:104360001868FBF7E0FF08BDB400002008B5034B58
:1043700074221968FBF7D7FF08BD00BFB400002006
:1043800008B5FEF763FC02F011FB02F009FC03F034
:104390008FF8BDE8084000F0A7BA00BF70B50D4D1A
:1043A00004462B685E7CFEF751FC012C03D900F01B
:1043B0009BFA304670BD2046FDF750FE0028F6D02F
:1043C0002B685C74FFF7DCFF034B1C6000F08CFA79
:1043D000304670BDB40000201C47022010B50446D2
:1043E000FEF734FC204602F003FBBDE8104000F06D
:1043F0007BBA00BF10B50446FEF728FC204602F049
:1044000031FBBDE8104000F06FBA00BF10B50446A4
:10441000FEF71CFC204602F057FB044600F064FA4D
:10442000204610BD38B50446FEF710FC044B1B684F
:10443000DD6904B1DC6100F057FA284638BD00BFE1
:10444000B400002010B418B111B10346002002E0FE
:10445000002101200B46034C034A216013605DF8E4
:10446000044B7047D4420220D842022070B5054662
:104470000C46FEF7EBFB094A094B29461068224619
:10448000084E407C358053F82000074DC3682C80CF
:104490001B6A9847BDE8704000F026BAB4000020BF
:1044A000CC420220BA420220BC42022038B5054666
:1044B000FEF7CCFB044B1B68B3F92A405D8500F086
:1044C00013FA204638BD00BFB4000020024B1B6821
:1044D00003B11847704700BF9C410220024B1A6885
:1044E00002B91860FFF7F2BF2841022000B97047F7
:1044F0002DE9F041DFF8C48082B00546FEF7A6FB47
:10450000D8F80040A54244D06E461CB919E0FDF72A
:10451000B3FAB4B12046FDF7DBF9034630469C6898
:104520000093A542F3D12846FDF7D2F90346009A3D
:1045300001A8996801939160FDF79EFA3046FDF756
:104540009BFA2846FDF7C4F9D8F804400090A5422C
:104550001A4B2CD094B101AF02E0FDF78DFA6CB18B
:104560002046FDF7B5F9034638465C680193A5423D
:10457000F3D1009A52685A60FDF77EFA3046FDF793
:104580007BFA2846FDF724F800F0AEF902B0BDE84A
:10459000F08102AF2846FDF79BF9836847F8040DC8
:1045A00038466E46C8F80030FDF766FAC9E742683B
:1045B00030465A60FDF760FAE3E700BFDC410220B5
:1045C00030B583B018B90124204603B030BD04468D
:1045D0000D46FEF73BFB2046FDF77AF9828902ABD8
:1045E0002A4243F8040D184614BF01240024FDF7A5
:1045F00043FA00F079F9204603B030BD0A4A00239F
:1046000030B5146883B003605CB105462046FDF701
:104610005FF902AB026943F8040D18462A60FDF702
:104620002BFA204603B030BDDC410220002370B5D8
:104630000B6082B018B90446204602B070BD0D462A
:10464000FDF746F9846801AE01902CB93046FDF7BC
:1046500013FA204602B070BD3046FDF70DFA204631
:10466000FDF736F9036901902B60EFE7F8B5084EC6
:1046700005460468336820461B6898473368074638
:1046800020465B689847044438462C60F8BD00BF5C
:10469000E0420220F8B569B105460C460026064FF7
:1046A0003B6828465B689847013C05440644F7D1BF
:1046B0003046F8BD0E46FBE7E04202202DE9F84304
:1046C000089C054689469846A96843462846561CD4
:1046D0004F684946B847013C3246F5D1BDE8F883FA
:1046E000F8B5B0F90040B0F904500C1BAC422ADA1E
:1046F0002344B0F90250E710FF21013B551B02692A
:1047000004F00704DE4302FB057541FA04F406F0E9
:104710000706D7EBE30205F11405E4B201FA06F649
:1047200000EB050EF6B20FD0435D013A0EF1010722
:104730001C43002A445503DD38461744FBF71DFE91
:104740003C7834433C70F8BD435D34401C434455D1
:10475000F8BD00BF30B4B0F9024080250369121BD8
:10476000B0F9004003FB02F3091B143301F0070208
:1047700003EBE1011541435C2B4330BC43547047CC
:104780000346B0F90620002114301B6903FB02F236
:10479000FBF7F3BD2DE9F04302F10F04804683B02F
:1047A000914624111E460F46640003FB04F01430AA
:1047B000FCF7C4FE0546B8B1FEF748FA2846FDF7F7
:1047C00087F8012301460A4A02A8A1F8049040F89C
:1047D000041DCE800C61A1F800804F808A608B811F
:1047E000FDF74AF900F080F8284603B0BDE8F083F1
:1047F00050BC0108B0F9063093423BDDB0F90430FB
:10480000F0B40D689D4232DAEE1007695C1E05F0C7
:10481000070307FB0262C6EBE4061432845C013234
:1048200004FA03F3104413F0FF0308D126B308354C
:1048300010F8013B013E25F00705002BF6D01C06C1
:1048400034D45B000135DBB21A06FAD55F062A467E
:1048500004D55B000132DBB25C06FAD402F0070338
:10486000072B0CD0561B0D60701CF0BC704700204D
:10487000F0BC7047002070473046F0BC7047002EF7
:10488000F0DD0478471CFF2C0DD1831903E017F8E5
:10489000014BFF2C07D1BB4202F10802F7D1E1E73F
:1048A00064000132E4B22306FAD4DBE7FF2BCDD15A
:1048B000EA1DD3E730B5054683B0FEF7C7F92846B1
:1048C000FDF706F8034602A89C8940F8043D013C28
:1048D00024B29C81FDF7D0F814B92846FCF778FE85
:1048E00000F002F803B030BD034A5368013B536047
:1048F00003B170470BF072B988410220F0B583B064
:10490000C0B9224C05462369CBB1E0681F4E18B9E7
:104910001F4B1868F060D8B123681C4F2BB30026DA
:1049200063681A4FC3B115B1A368184C2BB3304656
:1049300003B0F0BD154C01AD2369002BE5D1154A3C
:104940002046012340F8142F236101F029F8DCE709
:1049500001F022FDF060DFE7F8688000FCF788FED8
:104960000028786008BF0126DDE78000FCF780FEA4
:10497000B0FA80F638607609D2E7E0688000FCF78C
:1049800077FE0028A06008BF0126D0E7D0400220B3
:10499000C042022009E40008094B10B51C7838B960
:1049A00002464FF07F401A7001F0B0F9204610BD6A
:1049B000012200201A7001F0A9F9204610BD00BFA5
:1049C000C6420220082A10B40EDD102A1CDC00EBBF
:1049D0004101034650F8042B23F8022B9942F9D1E8
:1049E00001205DF8044B7047022A11D0042A00F020
:1049F0009A80012A3FD00144034650F8042B03F863
:104A0000012B9942F9D1EBE700205DF8044B704788
:104A100000F1100252F8103C01294FEA8313DBB277
:104A200026D052F80C4C02294FEA041404F030044A
:104A300043EA04031CD052F8084C03294FEA8404CB
:104A400004F00C0443EA040312D052F8044C043975
:104A500002F1100204F0030443EA040300F8013BEE
:104A6000BED052F8103C01294FEA8313DBB2D8D1F3
:104A700003700120B5E700F1200252F8203C012923
:104A80004FEAC313DBB2F3D052F81C4C02294FEAB1
:104A9000841404F0400443EA0403E9D052F8184CAB
:104AA00003294FEA441404F0200443EA0403DFD04E
:104AB00052F8144C04294FEA041404F0100443EA99
:104AC0000403D5D052F8104C05294FEAC40404F071
:104AD000080443EA0403CBD052F80C4C06294FEAF1
:104AE000840404F0040443EA0403C1D052F8084CDF
:104AF000073902F120024FEA440404F0020443EAB9
:104B00000403B5D052F8244C012904F0010443EA0F
:104B1000040300F8013B52F8203C4FEAC313DBB218
:104B2000B2D10370A5E700F1080454F8083C01294C
:104B30004FEA0313DBB213D054F8042C023904F10A
:104B4000080402F00F0243EA020300F8013B3FF4BD
:104B500047AF54F8083C01294FEA0313DBB2EBD10D
:104B6000037008465DF8044B704700BF082A2DE922
:104B7000F0410C4605461F680CDD102A21DC1E6939
:104B8000002E00F09180224629460223B0470120E2
:104B9000BDE8F081013A072A10D8DFE802F004519D
:104BA0000F770F0F0F9A00F1200858F8200CB84724
:104BB000012C4FEAC010C6B206D12E700120BDE80C
:104BC000F0810020BDE8F08158F81C0CB847022C99
:104BD00046EA8010C6B2F0D058F8180CB847032C3B
:104BE00046EA4010C6B2E8D058F8140CB847042C76
:104BF00046EA0010C6B2E0D058F8100CB847052CB1
:104C000046EAC000C6B2D8D058F80C0CB847062CFB
:104C100046EA8000C6B2D0D058F8080CB847072C36
:104C200046EA4000C6B2C8D058F8040C08F1200883
:104C3000B847083C40EA060005F8010BB5D1BDE7CE
:104C400000F1100858F8100CB847012C4FEA8010FA
:104C5000C6B2B2D058F80C0CB847022C46EA001085
:104C6000C6B2AAD058F8080CB847032C46EA800010
:104C7000C6B2A2D058F8040C08F11008B847043C9A
:104C800040EA060005F8010BDCD197E700F10808BF
:104C900058F8080CB847012C4FEA0010C6B20CD1E6
:104CA0002E702046BDE8F081861E55F8040BB847EB
:104CB000013C26F8020FF8D180E758F8040C08F1FF
:104CC0000808B847023C40EA060005F8010BDFD1AE
:104CD00074E71E693EB12846224601232946B047A3
:104CE0000120BDE8F0816E1E55F8040BB847013C69
:104CF00006F8010FF8D161E7F0B51C4E85B0F36FEF
:104D00000BB105B0F0BD1A4B6F4604AD4FF0010E6C
:104D100006F18004C6F87CE00FCB07C7190C15F824
:104D2000102D27F8023B397004F8012B15F8012FDC
:104D3000002AF9D1FDF76EFE234610F8012B194623
:104D400003F8012B0278002AF7D14A700AF01CFF01
:104D5000FCF7ACFB0DF002FC064B0748C6F894309C
:104D600005B0BDE8F04000F01BBE00BF08400220C7
:104D7000D8610108C5E300089C4002202E4B1B6847
:104D80002DE9F041044682B00D4683B1002004F0C5
:104D900003FC48B16E4632462946204606F046F8E6
:104DA00004F08CFA0028F6D102B0BDE8F081DFF8FB
:104DB0008C806B4610686E46D8F800705168B7F862
:104DC0004CC0B7F850E003C3BDF800706846BDF8AA
:104DD0000410BDF802206744BDF8063061447244F7
:104DE000ADF800707344ADF80410ADF80220ADF8D2
:104DF000063004F0D1FB60B9D8F80030598C9A8C99
:104E0000DC6C186D091B121A59849A8402B0BDE833
:104E1000F081D8F800303246BDF802002946BDF8CE
:104E20000070988420465F8406F000F804F046FA8B
:104E30000028EED1E0E700BFDC420220B4000020F1
:104E40002DE9F04F0C4687B017461D460190FDF73F
:104E50008FFDDDF804A08146002C00F0A48004AB97
:104E60002068616803C317F00C0B5FD1BDF91260B5
:104E7000CDF804A0002D56D00DF1040809F1FF393A
:104E8000504607F0030700241FFA89F9DFF838A11C
:104E90002DE0022F3CD00FB9BDF91040013833B2DC
:104EA0000FFA84FCDAF80020204409EB060EA2F881
:104EB00022C05946938402AAADF80C000198ADF8BF
:104EC00008C0ADF80A30ADF80EE0FFF757FF5946BD
:104ED0000198FFF7DFFB019B18440190FDF748FDA7
:104EE0000644404600F0FAFBE8B9E5B101982946CE
:104EF00000F0B2FB834601985946CBEB050500F064
:104F00006BFB012FC5D1BDF91440241A0134C5E74C
:104F1000BDF91040BDF914301B1B1B1A48BF0133EB
:104F200004EB6304BAE707B0BDE8F08F002D3ED074
:104F30002C4600260DF1040800E094B121460198AA
:104F400000F08AFB0346019801361946E41AFFF780
:104F5000A1FB019B03444046019300F0BFFB0028E6
:104F6000EBD0BBF1080F09D0BBF10C0F0DD0BBF19A
:104F7000040F03D0CDF804A000267FE706FB09F656
:104F8000BDF916309E1B013672E706FB09F6BDF926
:104F90001210BDF91620521A531C9B1B48BF013337
:104FA00001EB630664E704A8FDF7C6FC5BE7BBF111
:104FB000080F05D0BBF10C0F04D0BBF1040FB2D128
:104FC0000026DDE72E46E2E7B40000202DE9F04F91
:104FD0008FB000241F46934605909348199B0069A3
:104FE00007911C60002800F0F1808F4BDC681D46A3
:104FF0002CB98E4B1C68EC60002C00F0F1808A4BC1
:10500000894D1B680293002B00F0FD80864B864D76
:105010005B680393002B00F0E880A742844B854A2D
:105020004FF00006A8BF27461968059B3446487C08
:10503000BA463B4452F820200C93013B0892099356
:1050400013690D93FDF73CFC794B04901B68587C69
:10505000FDF71EFD784B794A0B90904218BF98429D
:1050600014BF012300230A935F46189B57F8040BD3
:10507000984781464FEA1068B8F1FF0F47D0002CDF
:105080002BD16B4B059A1B689519B3F90830AB42CD
:1050900059DD5A1B1D461446069202983444089B5B
:1050A000079900EB8404019328460B46099A009463
:1050B000FFF704F9049B172B7EDD0A9B002B44D0DD
:1050C0000C9B06965D1B2E460B9D2068A847013E53
:1050D00044F8040BF9D1069E0124534BDD69002DE1
:1050E00038D15FFA88F2B8F1000F1AD1029B039A07
:1050F00053F8263042F82630BAF1010A06F10106CB
:10510000BB46B1D1039C20460FB0BDE8F08F199B80
:10511000039A1B6842F8260043F00103199A1360B2
:10512000EAE7029949F07F40454B51F826101B6889
:105130009847199B039A1B6842F8260043F0010325
:10514000199A1360D8E70694A7E7374B0124DD6965
:10515000002DC6D0B600029A5346584632445746F0
:105160001446039A164421463246A847ABF104027E
:1051700008E02368013F04F1040406F1040646F840
:10518000043C0ED052F8043F13F07F4FF1D0216859
:105190000436043411F07F4F08BF46F8043C013F49
:1051A000F0D1199B039C1B68199A204643F0010318
:1051B00013600FB0BDE8F08F1A46069B204601240D
:1051C000C3EB0A010D9B00F043F986E71D4A01235A
:1051D000154840F8142F144A136100F0E1FB04E76E
:1051E00001F0DAF80446E86009E7E8688000FCF7B7
:1051F0003FFA0390686000287FF40FAF0024204638
:105200000FB0BDE8F08FA000FCF732FA286008B1BB
:105210000290FBE66C68002CF0D1E8688000FCF797
:1052200027FA68606FE700BFD0400220C04202202A
:10523000B4000020CC420220C1660008C966000804
:10524000BC00002009E400082DE9F04F8FB00646AD
:105250000D4614465F1E0493FDF7F8FC7B4B0CA82B
:105260001B68196DDB6C0C449A192B44ADF8324065
:1052700019460793E3190692ADF83020ADF83410C3
:10528000ADF8363004F088F900285CD0049A07FBAA
:1052900007F318460393931E02FB02FA0593D31EED
:1052A0000B93A3180893A31C0A93C0EB0A0309935A
:1052B000049B002B43DD1898FFF79CF8002F47D084
:1052C000089B3C4609980025DE1B00F05DFC069A11
:1052D000034604991046079A9B4600EB01091046C5
:1052E0000A9AC1EB0008921B0292C5EB09023146F3
:1052F000CBEB0900C344013A00F0DCFE05EB0800EB
:10530000029B31465A4601301E4400F0D3FE013C58
:105310004FF0000504FB04F31AD0C3EB0A0001931D
:1053200000F032FCA7428346019BDEDD039AD01ACF
:1053300000F02AFC0546D8E7049B022B4BD103F072
:10534000BDFF0028B4D1FFF7CFFA0FB0BDE8F08F52
:10535000049B012BF3D01998FFF74CF8059B002B09
:10536000EAD01D46069B049A1946C2F1020613466E
:1053700001EB0209079A1146C3EB0108089B1E4482
:1053800013E0C4EB09023146C3EB090003EB080B41
:10539000013A00F08FFE04EB080031465A46013016
:1053A000013600F087FE013DC6D005FB05FB002459
:1053B000CBEB0A0000F0E8FBAF422346E1DD039BA4
:1053C000CBEB030000F0E0FB059A0346AA42C8BFFE
:1053D00000F1FF34D5E71A98FFF70CF80B9C002C6E
:1053E000ADD0069B049A1946C2F1030501EB0208F1
:1053F00007998E1A08F1FF3B731C0193089B1D440B
:1054000011E0002000EB06092946C0EB08005A46CF
:1054100000F050FE29464A46019800F04BFE013C40
:1054200005F101058BD004FB04F9C9EB0A0000F07B
:10543000ABFBA742E5DD039BC9EB030000F0A4FB37
:10544000059B0138A342DCDDDCE700BFB40000208F
:1054500000292ADD082A2DE9F04704465D6803DDAE
:10546000102A0CDDBDE8F087531E072B05D8DFE8B6
:1054700003F02A51047B0404041DBDE8F0875E6933
:1054800036B10A46B44621460223BDE8F0476047DC
:1054900049000C446618671A34F8020DA84746F80C
:1054A000040DBC42F8D1BDE8F0877047661804EBE4
:1054B0008104771A16F8010DA84744F8040DBE427E
:1054C000F8D1BDE8F0874F1E80266FF0404AFB10F0
:1054D00007F007088A4446FA08F6591E14F80390A4
:1054E00004EB8A0AF6B20C4406EA0900C8F1070385
:1054F00076001841A8474AF80409B8F1000F5FD1B7
:1055000094F800900126013C4FF00708002FB4D01A
:10551000013FE9E74F1EC0266FF0404A07F003093C
:10552000BB108A444FEA4900591E14F8038004EB6B
:105530008A0A06410C44F6B206EA0803C0F10600E6
:10554000B60043FA00F0A8474AF80409B9F1000F81
:105550003ED1032694F80080013CB146002F8CD048
:10556000013F4FEA4900E7E74F1EF0266FF0404A3F
:1055700007F001097B108A444FEA8900591E14F88C
:10558000038004EB8A0A06410C44F6B206EA0803DB
:10559000C0F10400360143FA00F0A8474AF80409B4
:1055A000B9F1000F10D194F800800F26013C4FF0A4
:1055B0000109002F3FF461AF013F4FEA8900E5E7A1
:1055C00008F1FF38F6B2A1E7F6B24FF00009F0E7B4
:1055D00009F1FF39F6B2C1E770B584B01C4A04ABDB
:1055E000019043F8101D194613689847019050B375
:1055F000184B1B68DB695B692BB11B681BB10099F9
:10560000984704B070BD009B013B002B00931CDB4E
:10561000002401A8FFF72AF80546FDF767F9009B6B
:105620000444013B002B0093F3DA002604A928462A
:1056300041F8046DFDF76CF9039B9842B8BF1E1A40
:10564000301904B070BD04B070BD00252C46ECE7E5
:1056500010010020B400002030B583B00190E0B10B
:10566000104B0D461B68DB695B6923B15B6813B1A6
:10567000984703B030BD002D11DD002401A8FEF7CE
:10568000F5FF38B10A2805D00134A542F6D12846E5
:1056900003B030BD204603B030BD03B030BD0020A4
:1056A000E7E700BFB4000020F8B5044688B1002643
:1056B000094D00E001362B6820461B6898472B688F
:1056C000074620465B6898470444002FF2D13046D5
:1056D000F8BD06463046F8BDE042022010B504464B
:1056E00082B0236802A840F8043DFEF7BFFF48B12E
:1056F0000A2802D0002002B010BD019B00202360C8
:1057000002B010BD012002B010BD00BFB1F90030E1
:10571000B0F900209A42B0F90220B8BF0380B1F975
:1057200002309A42B0F90420B8BF4380B1F9043086
:105730009A42B0F90620C8BF8380B1F906309A4278
:10574000C8BFC380704700BFB2F90030F0B5B1F9EF
:105750000040B1F90250B2F902E0A342B2F904707C
:10576000B8BF2346AE457446B2F90660B8BF2C46B2
:10577000B1F90450B1F906203946AF4203804480A4
:10578000A8BF2946B242A8BF324681809442D8BF02
:105790008B42C280CCBF0123002383F00100F0BD07
:1057A0003A4B1B682DE9F0415D7C82B0012D03DD91
:1057B000012002B0BDE8F081354E0446736813B194
:1057C000014628469847012C27D0022C0FD0002CE8
:1057D000EED1AC00DFF8B8803719BB68012B3AD0A6
:1057E00001202644002B18BF013BB360E1E72846A7
:1057F000FCF734FC01900028DAD0C3680D2101A821
:105800005B6A984704460028D2D0336803B19847B2
:1058100002210198A0470020CBE706EB8506B76878
:105820001FB101372046B760C3E72846FCF716FCD6
:1058300001900028BCD0C3680D2101A85B6A98477D
:1058400003460028B4D0214601989847B3683846EB
:105850000133B360ADE72846FCF700FC019088B146
:10586000C3680D2101A85B6A9847054650B1D8F876
:10587000003003B1984700210198A8473319002050
:105880009B68AEE7BB680120ABE700BFB400002017
:10589000A44102200B0E4FEA1063F0B408BF20F0C1
:1058A0007F41114C02FB03F200F0FF160D0A01F0DC
:1058B000FF13A4FB0212C0F3072005F0FF15D20965
:1058C00040F08074C2F1FF0702FB06F107FB05F010
:1058D00007FB031102FB0400090A00F0FF2001F09E
:1058E000FF11F0BC08437047818080802DE9F04FA4
:1058F00087B09246139A01900291109B9DF85090A8
:10590000002A35D0129A0021DFF86CB09200DFF83F
:105910006C80039102EB830305920493129C57461B
:10592000029E019D55F8040BDBF80030020E56F87C
:10593000041B40F07F4009FB02F2A8FB02E2C2F325
:10594000C7129847013C40F07F4047F8040BE9D16B
:10595000019A05991046029A8A44039B08440499C7
:1059600001330A44019003930292139A9A42D5D1CB
:1059700007B0BDE8F08F00BFBC00002081808080B0
:10598000CB8892B270B40E888D884C881644AD1ABC
:1059900011199A1A068085804180C28070BC7047B8
:1059A00080B483B000AF7860064B1A687B685A6099
:1059B000044A7B68136000BF0C37BD465DF8047B6A
:1059C000704700BF7C400220F0B5076883B00546F1
:1059D0000E46CFB9002E58D033464FF0FF3200E0CC
:1059E000224613F8010B541C0028F9D1941C3846A8
:1059F000FBF75AFF844222D02046FBF791FD074671
:105A000068BB002003B0F0BD3846FBF761FF224BB6
:105A10000190002E14BF32461A46002808BF1846CF
:105A2000137801788B4206D15BB310F8011F12F88E
:105A3000013F8B42F8D001A8FCF71EF8CAE73846B0
:105A400002ADFBF745FF154B2246314645F8040DE4
:105A50001B6898472846FCF70FF80120D2E702ACF4
:105A6000FBF736FF314644F8040DFAF78FFC204669
:105A7000FCF702F82846FBF7D5FD01202F6003B0A4
:105A8000F0BD01A8FBF7F8FFBBE73846FBF70CFFBA
:105A90000028B6D03446AFE784BC010824010020BA
:105AA000F8B506464AB18407C9B208D001E08307B9
:105AB00005D0013A00F8011BF9D13046F8BD97082E
:105AC0003B464FB301EB0124032F02F0030204EB2A
:105AD000044415D900F110033D46043D43F8104C31
