:020000040800F2
:10000000C8C70120DD010008F904010849F3000810
:10001000F504010875BD0008251B0108000000005B
:100020000000000000000000000000008113010833
:1000300071BF000800000000FB040108F501000882
:10004000F7010008F7010008F7010008F7010008B0
:10005000F7010008F7010008F7010008F7010008A0
:10006000F7010008F7010008F7010008F701000890
:10007000F7010008F7010008F7010008F701000880
:10008000F7010008F7010008F7010008F701000870
:10009000F7010008F7010008F7010008F701000860
:1000A000F7010008F7010008F7010008F701000850
:1000B000F7010008F7010008F7010008F701000840
:1000C000F7010008F7010008F7010008F701000830
:1000D000F7010008F7010008F7010008F701000820
:1000E000F7010008F7010008F7010008F701000810
:1000F000F7010008F7010008F7010008F701000800
:10010000F7010008F7010008F7010008F7010008EF
:10011000F7010008F7010008E5140108F7010008DD
:10012000F7010008F7010008F7010008F7010008CF
:10013000F7010008F7010008F7010008F7010008BF
:10014000F7010008F7010008F7010008F7010008AF
:10015000F7010008F7010008F7010008F70100089F
:10016000F7010008F7010008F7010008F70100088F
:10017000F7010008F7010008F7010008000000007F
:10018000F7010008F7010008F7010008F70100086F
:10019000F7010008F7010008F7010008F70100085F
:1001A000D5F90008F701000835BF0008F70100087D
:1001B000F7010008F7010008F7010008F70100083F
:1001C000F7010008F7010008DFF80CD000F0A4F8F0
:1001D00000480047973B0108C8C7012006488047F0
:1001E00006480047FEE7FEE7FEE7FEE7FEE7FEE71C
:1001F000FEE7FEE7FEE7FEE781140108C9010008FB
:100200002DE9F05F0546002092469B46884606464B
:10021000814640241BE0284641464746224600F0DE
:100220006BF853465A46C01A914110D311461846EE
:10023000224600F052F82D1A67EB01084F4622467D
:100240000120002100F049F817EB00094E41201E63
:10025000A4F10104DFDC484631462A464346BDE8A6
:10026000F09F10B5441A0346944209D284181144F1
:1002700003E011F8013D04F8013D521EF9D210BD12
:1002800040EA0104A40703D009E010C9121F10C3FB
:10029000042AFAD203E011F8014B03F8014B521E75
:1002A000F9D210BDD2B201E000F8012B491EFBD2F9
:1002B00070470022F6E710B513460A460446194671
:1002C000FFF7F0FF204610BD034611F8012B00F8A0
:1002D000012B002AF9D118467047202A04DB203A66
:1002E00000FA02F1002070479140C2F1200320FA89
:1002F00003F3194390407047202A04DB203A21FA87
:1003000002F00021704721FA02F3D040C2F120022E
:100310009140084319467047064C074D06E0E068D7
:1003200040F0010394E8070098471034AC42F6D33C
:10033000FFF74EFFB4A20108D4A2010870B58C18D3
:1003400010F8015B15F0070301D110F8013B2A11E9
:1003500006D110F8012B03E010F8016B01F8016BD6
:100360005B1EF9D12B0705D40023521E0DD401F8D2
:10037000013BFAE710F8013BCB1A921C03E013F89B
:10038000015B01F8015B521EF9D5A142D8D30020D0
:1003900070BD00002DE9F047466886B0054630463E
:1003A00001F014F9C36D0090D0F88840D0F8807047
:1003B000D0F86880B0F87C90002B64D0D3F800A00F
:1003C000684601F017F914B909E024683CB1636884
:1003D000284698470028F8D006B0BDE8F0872B687B
:1003E000172B00F0A5801DDC0F2B00F08D807DDC2D
:1003F0000B2B00F0BF800D2B0AD119F0080F07D18D
:10040000EB68DB6823B11B7A13B1304606F05AF86B
:100410003046294604F0C6FE0028DDD0284605F007
:100420003FF9D9E7262B75D02FDC1E2B00F0AE80CC
:10043000202BEDD1EC68002CEAD03146606807F043
:100440008FF8002800F0BC80304601F0BFF8B0F80B
:100450007C3002460190180740F1258101A801F087
:10046000C9F83146606807F069F80028D0D03046F6
:1004700001F0ACF86268034601A80193C3F880203C
:1004800001F0B8F8C4E79A469AE72A2B65D0B3F58D
:10049000107FBDD106AC3046D5F80C8001F096F83F
:1004A000B0F87C7044F8140D204601F0A3F8EB6816
:1004B000002B91D098F80830002B00F0A780380767
:1004C00040F1B380304604F0CBFF07F48873B3F5F6
:1004D000887F81D107F080039BB2002B7FF47CAF33
:1004E00041463046052205F09BFF75E7112B22D0CF
:1004F000142B8DD1304601A900F07CFB02ABEA68D9
:1005000003CB1060516067E7BAF1000F80D030462E
:10051000D0477DE7EB68022B7FF45EAF272206A968
:10052000A86841F8142D0396049307F06BF853E77D
:10053000C5F80C8050E7EC68304601F047F80190B0
:100540002389012B05D1B0F87C3043F48073A0F8E7
:100550007C3001A801F04EF85AE7304601F036F839
:10056000EB680090002B64D0C0F88430684601F03E
:1005700041F831E7304601F029F803467030009326
:1005800000F0E0FE684601F035F841E7EC68012C28
:1005900053D0002E3FF420AF304601F017F8B0F8EA
:1005A0007C30024601901C0706D523F00803304634
:1005B000A2F87C3005F08CFB01A801F01BF80BE7DA
:1005C000304601F003F8B0F87C300246019019077C
:1005D00006D523F008033046A2F87C3005F078FBFE
:1005E00001A801F007F83146206806F0A7FF0028AF
:1005F0003FF40EAF304600F0E9FF2268034601A841
:100600000193C3F8802000F0F5FF01E7304600F0C9
:10061000DDFF03462046B3F87C20019322F480726C
:10062000A3F87C2000F0E6FFD6E6304605F04AFF4E
:1006300048E7D0F88430EB6098E7384605F0C2FD13
:1006400000B3384605F03EFF384605F021FA90B970
:1006500026B9002F7FF4C0AEEF60BDE6304600F053
:10066000B5FFB0F87C3002460190190723D501A8E8
:1006700000F0C0FFEDE72146384604F075FE002E7D
:10068000E7D0EBE7404605F06FFF0746304600F045
:100690009DFF03466846C3F88070009300F0AAFFF0
:1006A000002ED6D0DAE743F008033046A2F87C30BB
:1006B00005F00EFBD2E643F008033046A2F87C308A
:1006C00005F006FBD3E700BF2DE9F04F04468DB0DF
:1006D0004FF480564B4F0091A569B0F90C1060356E
:1006E000B0F90A001944B4F910301044B4F90E20DE
:1006F000039502970196B4F812A0B4F90860D4F8F3
:1007000004B004F0EBFE054618B928460DB0BDE86C
:10071000F08F00F05BFFDFF8F49031460CAE302232
:10072000049004F047FE56F8207DCE464FF00008B6
:1007300007F13404BEE80F000FC4BEE80F000FC479
:100740009EE80300169B84E803007B663046D9F8D8
:10075000283041F28274A7F87CA0FB65C7F880803E
:10076000C7F86C80C7F8888000F044FF07A92846C6
:10077000254F00F03FFABDF922E0BDF92010BDF988
:100780002420BDF926300846521A0194CEEB03030B
:1007900071460132CDF80C8001330095029704F0C8
:1007A0009DFED9F82830044628465B6898472846BD
:1007B00000F00CFF034630469C66049300F01AFFDD
:1007C000284605F0B9F8284600F000FF034605A8C2
:1007D0001A6F0593069200F00DFF594606A803F024
:1007E00037FA002891D0284600F0F0FE069A03461A
:1007F00005A81A67059300F0FDFE284605F068FA83
:1008000083E700BF95030008150E00085400002080
:100810002DE9F041044690B0006800F0D5F9B04BE6
:100820006668A3F12C05002808BF1D461C2E00F2A7
:10083000F780DFE816F02200F500F500F500F5007E
:100840003500F500F500F500F500F5005100F50064
:10085000F500FA00F500F500F5000E01F500F500D1
:1008600048014A014C014E01F500F500F5001D005C
:100870006E69304610B0BDE8F081206800F0A6FE39
:10088000034610A8B3F85A2040F82C3D42F00C0261
:10089000A3F85A2000F0AEFE206805F0DBFEE8E782
:1008A0002A690026B4F910300192B4F91470184680
:1008B000EA68B4F918503946B4F91C40ADF81C3058
:1008C000009223462A46ADF81E70ADF82050ADF8D0
:1008D000224001F04FFACCE723681C221846089208
:1008E000079300F073FE034607A805931B6D984716
:1008F000064605A800F07EFE012E40F32781A96878
:100900003346626902916868A16901902F68206985
:10091000009702F01FFF2769A3693744C6EB03085D
:10092000286802F083FB42463946606901F0F2FA1A
:10093000686802F07BFB606942463946013001F08D
:10094000E9FA6B6A022B00F3F4802A6A964217DAFE
:100950006769012E206907F1020840F32A810244E9
:10096000374430444146013A3B4601F083FBA069DD
:10097000821B3B46EF694146C01B013001F07AFB08
:10098000012E40F3138163691E44E7692868013F23
:1009900002F04CFB314620693A4601F047FB3A46EB
:1009A0003146A06901F042FBE769686802F03EFB4E
:1009B000023F206931463A46013001F037FBA06919
:1009C0003A463146013801F031FBEB69022B40F326
:1009D0008280AB6AE769022BA868CCBFFF1A023F8E
:1009E00002F024FBEA69022A00F39A802B6A022BA8
:1009F00000F38C80286802F019FBA2692169E06984
:100A000001F088FA686802F011FBA2692169E069C7
:100A1000013A0131013801F07DFAAF6A022F61DC41
:100A20000026304610B0BDE8F08104F114012769BA
:100A3000A8680026ADF81C700EC9ADF81E10ADF800
:100A40002020ADF8223002F0F1FA07A801F036FBC1
:100A50000FE7298B2269A3690A4465695B1AE1697A
:100A60002068ADF82030ADF81C20ADF81E50ADF870
:100A7000221000F0ABFD036F0590FBB1022002F0E5
:100A80000FFB059AB2F87C30C3F3C0030E3302EBC0
:100A90008303986802F0CAFA059B586B02F0C8FA03
:100AA000059B186F00F092FD059B07A90690B3F90E
:100AB0005A2001F06BF806A800F09CFD05A800265E
:100AC00000F098FDD5E6AE6AD3E6EE69D1E62E6A6F
:100AD000CFE66E6ACDE62B6A022B8BDD79E700BF8D
:100AE000EC000020D4F81C800026A2692169A868C7
:100AF000951E8C1C02F09AFAC7EB08012A46204684
:100B0000A8F10203013101F0B5FAB2E6A0693B4653
:100B1000EF693146821EC01B013001F0ABFA69E774
:100B200020693B46314602440230013A01F0A2FA04
:100B30005CE7A86802F07AFA636938466F6A991C24
:100B400042463B44013B01F095FA19E7286802F060
:100B50006DFA2269EB69114660691A44013A01F0A5
:100B6000D9F9A369E9691A466069591A013101F096
:100B7000D1F9676920690137394601F0F1F9394641
:100B8000A06901F0EDF9686802F050FA2069394671
:100B9000013001F0E5F9A0693946013801F0E0F9CA
:100BA0002769A3690237A3F10208B9E6666902362C
:100BB000EBE60244434602304146013A474601F023
:100BC00059FAA069821ED4E610B582B018B904465D
:100BD000204602B010BD00F0F9FCB0F87C4002AB3A
:100BE000C4F3C00443F8040D184600F003FD20468A
:100BF00002B010BD2DE9F04F89B007460D4600F058
:100C0000E5FC034601213846DA6D059394682368B4
:100C10009847236803218046384698472368022175
:100C200083463846984723680021824638469847CD
:100C30008146059806F0A8F80646059806F0ACF837
:100C400003460598448E04F02004A4B2B4B1B0F970
:100C50005420B0F95840002A4AD091B2C06E0C44DA
:100C6000A4B280B103910292019304F0EDFE019BC6
:100C70000FFA80FC029A80B2039905E021462246D1
:100C8000C06E0028EED184461FFA89FE013E013B6A
:100C90000FFA88F8CBEB060674440EF1FF3ECAEB60
:100CA000030336B2044471446B812A8005A8A5F879
:100CB00002C0EC8069822E812E82A5F80480A5F8FE
:100CC0000C80A5F80E9000F095FC08AAB5F910402C
:100CD0003846B5F90C3006A942F8044D069300F0E9
:100CE0004BF8069A079BAA812B8209B0BDE8F08FCA
:100CF000406B019301F08EFA821C019B059891B222
:100D000012B20C44A4B2BBE708B5438E03F0200333
:100D10009BB24BB10246B0F9540000B108BD506B14
:100D200001F078FA023008BD184608BD70B58AB0E7
:100D30000C46064600F04AFC0AABC26D43F8280D8B
:100D40001846956800F056FC0196032C05D8DFE89C
:100D500004F00F0C0902172302936B6801A898474F
:100D60000AB070BD15230293F7E716230293F4E748
:100D700018230293F1E700BF2DE9F04383B08846C2
:100D80000446914600F022FC034602A8DA6D40F8C2
:100D9000083D9568B3F90070B3F9026000F02AFCD1
:100DA0002B682046002198470546204604F002FEA5
:100DB00068B3044607E001A800F01CFC204604F0DC
:100DC0000DFE044618B3204600F000FCB0F90230D6
:100DD00001909B1B9D42EED1836A1B060BD5B0F997
:100DE0000030D9F80020DB1B934203F1FF33E2DC33
:100DF000C9F80030DFE7B0F90430D8F80020DB1B79
:100E0000934203F10103A8BFC8F80030D3E703B051
:100E1000BDE8F0832DE9F043456887B004462846D5
:100E200004F0E6FD074600F0D1FB034606A85E6E1F
:100E300040F8143DD3F84880D3F8809000F0DAFBF6
:100E400023680E3B232B3FD8DFE803F035463E3EB8
:100E50003E3E12123E123E3E3E3E3E3E18243E3E76
:100E60002B3E3E3E3E3E3E3E3E3E3E3E3E3E3E30C3
:100E7000204604F015FC07B0BDE8F083E368002BC2
:100E8000F9D0B9F1000F3BD04D4539D0484605F0B7
:100E900019FBF0E72146384604F084F907B0BDE8B5
:100EA000F083C4F80C8007B0BDE8F0830023E36052
:100EB00007B0BDE8F083E3685A68002A04DD1B68C8
:100EC000092B1DD00A2B1FD0002ED1D020466760E1
:100ED000B04707B0BDE8F0836FF07043984504D089
:100EE000404603F033FD00F047FC002EC3D002AFB4
:100EF00094E80F0087E80F0038460395B047BAE73B
:100F0000284605F031FBB6E7284605F071FBB2E74D
:100F1000014B83E803007047FCC00120014B83E8CC
:100F20000300704704C10120014B83E803007047B0
:100F30000CC10120704700BF704700BF2DE9F04F82
:100F40005C4E8DB03368DA69B3F92250D469B4F8D5
:100F50000CB0834500F29780E1898142C0F0938014
:100F60002168CBEB000B08914FF0FF310A91BBF1E8
:100F7000FF3F00F0828092F81880A27CB3F92A101B
:100F8000B3F9249018FB02F3084607911F4694F822
:100F900010A003F047FDD6F800E008994346DEF8BC
:100FA00038C05246099007FB0B10DEF81CE00B9787
:100FB000012704904946CDF814C0284694F812C081
:100FC0000297CDF80CC09EF81BC0DFF8E8B0CDF852
:100FD00004C09EF81AE0CDF800E002F0FDFF0A9F81
:100FE0007B1C25D0079941F0020003F01BFDDBF8C4
:100FF00000100B9A43460898D1F838C002FB07004E
:10100000D1F81CE00127CDF814C00490524694F8A2
:1010100012C0494602972846CDF80CC09EF81BC066
:10102000CDF804C09EF81AE0CDF800E002F0D4FF3D
:101030003368DFF88080DB695A7E1B7E9A4215D9BF
:10104000079B022B12D083F0040003F0EBFCD8F8CE
:1010500000302846DB691F7ED97E9A7E5B7E07FBC7
:1010600001910AFB02524B4403F0BEF99DF82400A3
:1010700003F0D8FC3368B3F92250627C15445D84D8
:101080000DB0BDE8F08FA1680029F6D00F88B842F6
:10109000F3D3B1F802E08645EFD3C01B4968676817
:1010A00080B2089701EB800731F920B0B7F9021040
:1010B0000A915CE74C000020044B1B68DB69DB698C
:1010C00009B11A7C0A60587C704700BF4C000020B0
:1010D00002230B80704700BFC3699A898A4202D8F5
:1010E000DA898A4211D2986818B10388994201D2EC
:1010F0000020704742888A42FAD3C91A436833F8FD
:101100002100C043C0F3C03070470120704700BFCA
:101110002DE9F04F3A4D89B02B68DA69B3F92A907E
:10112000D36943B11A88904202D35988814205D2CB
:101130009B68002BF6D109B0BDE8F08F841AD3F874
:101140000480484608EBC40696F802B003F06AFC37
:101150008246286818F834204FF0010EC769D0F88D
:1011600038C0B0F92410B0F922003B7E0790CDF8CA
:1011700014C07068CDF80CB00490CDF808E097F872
:101180001BE00798CDF804E0BF7E009702F024FF33
:101190002B68DA69537E177EBB4223D9B9F1020F5F
:1011A00007931FD092F81BB000F0DCFF814600F0DF
:1011B000BDFF01F03BFF124B18F834E01868079BA5
:1011C000C169B0F92240CA7EB0F9241020460EFB56
:1011D00002420BFB03130BFB071103F005F9484612
:1011E00001F024FF504603F01DFC2B687178D8698C
:1011F0005A8C807E00FB01225A8409B0BDE8F08F32
:101200004C000020114B1B6870B4DD69EB6943B1E1
:101210001A88904202D35C88844205D29B68002BD6
:10122000F6D1184670BC7047821A5E68AC7E06EB39
:10123000C2035B7813FB04F00029F3D016F83230B8
:1012400014FB03F370BC0B60704700BF4C00002020
:1012500001230B80704700BFC06950B103888B42E7
:1012600002D843888B4203D280680028F6D17047A9
:101270000120704700B9704706F042BC08B9002051
:101280007047F8B5064606F03BFC044638B3154DEA
:101290003246154F0021E8696B6B013003EBC40641
:1012A000E86113F83400013003F8340076683B68D5
:1012B00006F10800984731686A6B12F83130012B4B
:1012C00001D9E86920B9013B204602F83130F8BD68
:1012D0000138013BE861204602F83130F8BD0020BA
:1012E000F8BD00BFD4C20120A400002021F00301FA
:1012F000014B83E80300704714C1012000B9704717
:1013000070B50A4CC6000546636B3344596848689B
:1013100006F048FA6368626B0021606A0133164484
:101320006360706002F83510656270BDD4C2012040
:1013300028B1034AD36B036003B15860D063704790
:10134000D4C20120F8B50468054694B10A4EE700FE
:10135000736B3B445968486806F024FA7368726BF3
:101360000020716A013317447360796002F8340019
:10137000746200232B60F8BDD4C20120F8B58B4EF7
:10138000044696F82830002B2FD00334356CF26BCE
:1013900024F003040434A54238BF254662B152F854
:1013A000043C14469D4204D114E054F8043C9D4290
:1013B00010D02468002CF8D1F368B46B1C4454F8A6
:1013C000041C611A0B68002B68D14B689D426FDDCD
:1013D000002408E023680BB161685960616801B1BD
:1013E0000B60A24256D02046F8BD714B01219A688D
:1013F00086F8281058680AB982089A605A2710227D
:1014000020254FF0400E3762802732644FF48072FF
:10141000B5644FF400751968C6F850E04FF4806E5B
:10142000B7654FF4006732664FF48052B5664FF4EB
:101430000055A1F11403C6F870E0B7674FF4804E71
:10144000C6F880204FF40047C6F888504FF4803229
:101450004FF400350344C6F890E04FF4802EC6F8F0
:1014600098704FF40027C6F8A0200222C6F8A850B2
:101470000125B1637363C6F8B0E03261F060C6F86D
:10148000B8705D607562756006F08CF908F036FA28
:1014900035637AE723682046F363F8BD002009F03E
:1014A000E3FE54F8041C611A0B68002B90D18CE702
:1014B000581BD6F8B8703D4A041DBB420C4472D28A
:1014C000D2F8B070BB426CD2D2F8A870BB4266D2E0
:1014D000D2F8A070BB4260D2D2F898709F425AD91D
:1014E000D2F89070BB4254D2D2F88870BB424ED230
:1014F000D2F88070BB4248D2926F934243D2376F8A
:101500002A4ABB423DD2976EBB4238D2176EBB42CD
:1015100033D2976DBB422ED2176DBB4229D2976C46
:10152000BB4224D2126C93420CD2F2687369521BF4
:101530002B44F260736110B944F8045C53E706F081
:1015400031F9F9E700223768D1F808E0FF1ACB68D3
:101550003760BEF1000F01D0CEF8043013B1C3F8EC
:1015600000E0E2E706EBC202C2F844E0DDE7012258
:10157000E9E70222E7E70322E5E70422E3E70522A1
:10158000E1E70622DFE70722DDE70822DBE70922A1
:10159000D9E70A22D7E70B22D5E70C22D3E70D22A1
:1015A000D1E70E22CFE70F22CDE700BFD4C2012042
:1015B00014C1012030B1044B5B6B03EBC0004368E6
:1015C00058680C38704700BFD4C20120084AD1695E
:1015D000536B013110B4D16103EBC00413F8302018
:1015E000013203F8302060685DF8044B0830704722
:1015F000D4C2012003680B4A30B4044653F8085C97
:10160000506B10F83530012B03D9D16909B101397C
:10161000D1610022013B00F835301046226030BC19
:10162000704700BFD4C20120034B5B6B03EBC000CB
:1016300040680830704700BFD4C2012070B50D4625
:10164000044600F0C9FE00222B46C1B22046BDE888
:10165000704000F001B800BFB0F1004F2DE9F04339
:1016600046D0002851DB00254D1B4FF0000EEDB297
:101670000AB1013DEDB275B36C1EAA42274F4FF07F
:101680003108DFF89CC0E4B21ED057F8246090FB0C
:10169000F6F1C9B20A2901F1010906FB11001AD8B5
:1016A00024B9BEF1000F01D05FFA89F10A2901F1D6
:1016B000300115D01D686E1C1E6029705CB1254676
:1016C0006C1EAA42E4B2E0D119684E1C1E609CF860
:1016D00000600E70D9E71B6800221A70BDE8F08325
:1016E00019682C464D1C1D60254681F80080E7E7EF
:1016F0001C684FF0010E4D1E2D2104EB0E066FF0FD
:101700000040EDB21E602170B2E71C6801252D2655
:10171000404267191F602670A6E700BF50480108C5
:1017200098C30120C3B2CAB29A1A92B210B414B2CA
:10173000002C1EDBC1F30722C0F307239B1A9BB2C8
:101740001AB2002A12DB090C02FB02F2C1EB1041B3
:1017500004FB042089B20CB2002C01DA49420CB21D
:10176000A1B25DF8044B01FB010070475B421AB265
:10177000E9E7524214B2DDE700212DE9F0410846C5
:1017800082B000F05DFD042003F04CF9144B154FBE
:1017900043F6FF761B6980463D463446DA6C684660
:1017A0001B6D174416441D441C44ADF80070ADF881
:1017B0000460ADF80250ADF8064005F0F5FA48B106
:1017C000234632462946384602F00EFE05F07EF9E1
:1017D0000028F5D1404603F025F902B0BDE8F081BC
:1017E0003C00002001C0FFFF2DE9F047044682B015
:1017F0000D461646002B37D09A46009651460B9B55
:10180000204626680A9AB047074618B9384602B0FB
:10181000BDE8F08704F0B4F8618A8046384603F0EA
:10182000A3FD013D384604F047FF404604F044FF65
:10183000002D1DDD4FF0000903E004F03DFF013DE8
:1018400016D054F81C6F0023CDF800904146204676
:101850001A46B04706460028EFD1384603F050FF3D
:10186000304602B0BDE8F08704F098F88246C4E73D
:1018700040461D2104F09EFDBAF1FF3FC6D004F0A2
:10188000A3F840B9BA450CD0384604F06DFE38468E
:10189000BDE70028F8D0FFF7C7FE80698742F8D17E
:1018A000B4E75046B3E700BF012B3BDC2DE9F8431A
:1018B00081461C2090460F461E46FFF75FFD0546F9
:1018C00000287FD0414A002F31D00023DFF804E107
:1018D00052F8264003609EF8001007618E42866130
:1018E000A0F81480C0F80C904360836002DB731C86
:1018F0008EF80030002C5DD021464C68002CFBD1C6
:10190000D9F80000CB681B6883422CDD09680029E8
:10191000F8D148B92E4B163628461A6842F8265098
:10192000BDE8F883002070472846BDE8F88352F8E8
:101930002610002930D0084600E018460368002B26
:10194000FBD10069DFF88CE02B6028619EF8000075
:10195000AE618642A5F81480C5F80C906B60AB6050
:10196000CBDB0C46C3E70AD04B6843B31D606B600A
:101970008D4214BF0B4600234D602B60C9E7B8F1C0
:10198000010FF1D104E0DC68194623688342EBDBE8
:101990000B68002BF7D1E7E7DFF838E001609EF82D
:1019A000003086619E42A0F81480C0F80C9041601F
:1019B0008160D6DA42F82650D9F80000A9E742F84B
:1019C0002650D5E70020BDE8F88300BFA4C301205E
:1019D0004C0000209FC30120FFF7AABC0F4A816979
:1019E00052F8213098420AD042680AB10368136065
:1019F000036803B15A6000230360436070470368C3
:101A000042F821302BB100225A604268002AEED100
:101A1000F0E74268002AEAD1EDE700BFA4C3012045
:101A200001280EDC084B53F8200058B1C3681B682E
:101A30001BB908E0C3681B6823B100680028F9D10E
:101A40007047002070477047A4C301202DE9F04F74
:101A5000484D83B0044600F093FB2B680646B3F96B
:101A6000228000F0BFFB2B681FFA80F99A8CC9EB2B
:101A7000020212B29A84217800294FD0B6B22F46C2
:101A800047F6FF71204601F0A1FF0146834620463C
:101A900001F05CFF29688B8D03F00303012B58D004
:101AA000022B5AD01FFA80FA4FF0000E4B8C0AF12D
:101AB000FF3CB1F92420CEEB0303ADF80220013A3C
:101AC0009BB2B0186A460FFA83FE6344ADF8060075
:101AD0002046A1F822E05946ADF800E0ADF8043008
:101AE00001F010FD2B682046BDF8022059469A846B
:101AF00001F0B8FB235C04440A2B19D00D2B17D03E
:101B0000BDF800003B688244A3F822A022781AB1F5
:101B100062780134002AB3D1B3F92420998D91441D
:101B200021F00302A3F824909A8503B0BDE8F08F5A
:101B30002B689A8D02F00302013A012A16D8A3F805
:101B4000228022780A2AE2D19A8C32449A8422781E
:101B5000DDE71FFA80FEF246A8E7002803461FFAD9
:101B600080FAB8BF431CC3F34F0E9FE71A8C5A8408
:101B7000E7E700BF4C000020034B1B6859849A84A0
:101B800008B1FFF763BF70474C00002000B3F0B509
:101B9000054683B016460C46C1B1084604F080FDE8
:101BA000074638B102462146684601F087FF68467D
:101BB00004F076FD32462146284647F6FF7301F0D1
:101BC00003FD384604F06CFD03B0F0BD0F46F1E7AD
:101BD000704700BF2DE9F04F654C91B02468E56C6B
:101BE000246D2818AA186118E318064602900EA85A
:101BF0000192079114460893ADF83860ADF83C2087
:101C0000ADF83A10ADF83E3005F0CEF8002800F0FF
:101C10009580C6EB040B1A999DF86820C1F3072440
:101C2000BBF1000F1B995B46B8BF0BF101030BFB27
:101C300002FEC1F307271A995B109DF86CC0C1F32F
:101C400007401B9903EB0E05C1F307461A990A9545
:101C5000090E0BFB04353C1B0B9503940BFB003466
:101C6000301A0BFB01335E460C940D931B9B0490C2
:101C7000C1EB13630593C2EB0C03069300F072FAF9
:101C80001A9B1B9A0990934268D0002E52D0029D55
:101C9000019A95425ADC0AAF86464FF0010B97E84D
:101CA000800706E00BF1010B0135019BA646AB4214
:101CB0002FDB70469AFBF6F499FBF6F197FBF6F3EF
:101CC00098FBF6FC2206059C43EA0C23A24442EA58
:101CD0000144049A1C43029B9144069AAB42174468
:101CE000039A9044E0DA7445DCD002F069FEBBF15F
:101CF000010FCBEB0500089B05F1FF32079920D0BF
:101D000002F072FB0135019B4FF0010BA646AB427E
:101D1000CFDA204602F054FEBBF1010F18D0019A31
:101D2000089BCBEB02000799013002F05DFB09989C
:101D300002F046FE04F0CAFE00289FD111B0BDE8B3
:101D4000F08F1A46681E02F027FBADE702F038FE5E
:101D5000089A0799019802F01FFBE8E7184602F07D
:101D60002FFE089B019A0799029802F03DFBDEE7DF
:101D70004C0000202DE9F04F654C91B02468E56CD3
:101D8000246D2818AA186118E318064607900EA8B3
:101D900008920D46029101931C46ADF83860ADF8EB
:101DA0003C20ADF83A10ADF83E3004F0FDFF0028BD
:101DB00000F09580C5EB040B1A999DF86820C1F3DB
:101DC0000724BBF1000F1B995B46B8BF0BF1010361
:101DD0000BFB02FEC1F307271A995B109DF86CC03C
:101DE000C1F307401B9903EB0E05C1F307461A998F
:101DF0000A95090E0BFB04353C1B0B9503940BFB5A
:101E00000034301A0BFB01335E460C940D931B9B80
:101E10000490C1EB13630593C2EB0C03069300F02F
:101E2000A1F91A9B1B9A0990934267D0002E52D0B9
:101E3000029D019A954259DC0AAF86464FF0010B8C
:101E400097E8800706E00BF1010B0135019BA646E0
:101E5000AB422FDB70469AFBF6F499FBF6F197FB49
:101E6000F6F398FBF6FC2206059C43EA0C23A244F9
:101E700042EA0144049A1C43029B9144069AAB42F5
:101E80001744039A9044E0DA7445DCD002F098FDE0
:101E9000BBF1010FCBEB050105F1FF33089A079861
:101EA00020D002F0A1FA0135019B4FF0010BA646AC
:101EB000AB42CFDA204602F083FDBBF1010F17D011
:101EC000019B089ACBEB03010798013102F08CFAD1
:101ED000099802F075FD04F0F9FD00289FD111B0BA
:101EE000BDE8F08F691E02F0FDF9AEE702F068FD73
:101EF000089A0199079802F0F5F9E9E7184602F007
:101F00005FFD019B089A0299079802F06DFADFE7DE
:101F10004C000020F0B5114F83B03B681D6DDC6CA8
:101F200005446846661814442BB2ADF80060ADF85D
:101F30000440ADF80230ADF8063004F035FF50B182
:101F40003B682246294630465B6E1B68984704F082
:101F5000BDFD0028F4D103B0F0BD00BF4C0000204F
:101F600070B5104E82B03368DD6C1C6D0544684658
:101F70000C442AB223B2ADF80420ADF80020ADF82D
:101F80000630ADF8023004F00FFF48B13368214647
:101F900028465B6E5B68984704F098FD0028F5D1F1
:101FA00002B070BD4C0000202DE9F0431E4C83B000
:101FB00025682E7E2F6DEC6C013E07EB010907EBC7
:101FC000030825181444B2B26846AE1A1119C2EBC0
:101FD00009034244ADF80060ADF80410ADF80230DA
:101FE000ADF8062004F0E0FED8B109F1010708F1D0
:101FF000FF3622464946284602F074F922464146F9
:10200000284602F06FF932463946284602F0C4F9F4
:1020100032463946204602F0BFF904F057FD002849
:10202000E7D103B0BDE8F0834C000020104B1B68E3
:1020300070B5DD6C82B01C6D0544684666181444AA
:102040002BB2ADF80260ADF80640ADF80030ADF847
:10205000043004F0A9FE40B122463146284602F081
:102060009BF904F033FD0028F6D102B070BD00BF2B
:102070004C000020F0B5104C83B02468E56C246D52
:102080002F18154466181C446846ADF80070ADF86A
:102090000450ADF80260ADF8064004F085FE48B18A
:1020A00023462A463146384602F09EF904F00EFDDA
:1020B0000028F5D103B0F0BD4C000020154B0146BF
:1020C0001B68F0B5DA6C83B01B6DB1F9007068461F
:1020D000B1F90450B1F902601744B1F90640154452
:1020E0001E44ADF800701C44ADF80450ADF8026019
:1020F000ADF8064004F058FE48B123462A46314662
:10210000384602F071F904F0E1FC0028F5D103B083
:10211000F0BD00BF4C000020034B082153F8200005
:10212000C3689B6A184700BFA4C3012008B502F02A
:102130009BF9BDE8084002F0DDBA00BF024B002168
:102140001B68DB695B6818474C000020024B1B686A
:10215000DB695B68184700BF4C00002008B103F042
:10216000FFBB704708B502F087F9BDE8084002F0F0
:10217000C1BA00BF014B1B68187C70474C0000209F
:10218000024B1B68DB69587E704700BF4C00002083
:10219000034B1B68DB69187EDB7E00FB03F0704796
:1021A0004C00002038B50D46144602F0D3F910B1AA
:1021B00000232B60236038BD10B5044601F02EFCCF
:1021C00001462046BDE8104001F0C0BB044B34225C
:1021D000352061219A70187018461971DA707047AD
:1021E000340000200A4B1A68938D03F00C03082B6F
:1021F00005D00C2B03D0042B05D000207047D369E9
:10220000187E40087047D369187E0138704700BFB8
:102210004C000020027EC07E02FB00F0704700BF31
:10222000024B53F820301B6918687047A4C3012083
:10223000024B53F820301B6958687047A4C3012033
:10224000024B1B6858840020998470474C00002082
:1022500090B583B000AF534A524B1B6823F0010383
:102260001360514B1B68C3F30A0340F24942934287
:102270000CBF01230023DAB24B4B1B68C3F30A03E4
:1022800040F251418B420CBF01230023DBB21343C8
:10229000DBB21946444B1B68C3F30A0340F25242B7
:1022A00093420CBF01230023DBB20B43002B10D061
:1022B0003E4B01221A6000BF3C4B1B68002BFBD138
:1022C0003B4B3C4A1A603A4B1B683B4A934218D03E
:1022D000FEE73A4B1B68C3F30A03B3F58A6F10D1CC
:1022E000374B01221A6000BF354B1B68002BFBD116
:1022F000344B304A1A60334B1B682F4A934200D04C
:10230000FEE701F0BFF8304B2E221A7009F04AFFA9
:102310002E4808F055FB09F02FFC786002F05AF9BE
:102320000346002B0CBF01230023DCB202F088F926
:102330000346002B0CBF01230023DBB22343DBB297
:10234000002B09D002F04CF9044602F07FF9034655
:102350001946204602F060FB0021002000F086FEB6
:1023600003F0A4FB1A4B1B68002B12D00DE0184B96
:102370001B681B68002B03D0154B1B681B68984714
:10238000134B1B685B68124A1360114B1B68002BD0
:10239000EDD1104B01221A707B6818460C37BD46F0
:1023A00090BD00BF002000E0002004E008300240A3
:1023B00000300240C2A507F4CDB5E8B50010005CBE
:1023C000084C0258004C025898C3012028C1012033
:1023D000A0C101209EC3012080EAE0730246A3EB66
:1023E000E073092B1FDD632B20D9B3F57A7F20D34F
:1023F00042F20F718B421FD917498B421FD91749DF
:102400008B421FD916498B421FD916498B421FD9BF
:1024100015498B428BBF0A20092009230823002A73
:10242000B8BF981C704701200023F8E70220012361
:10243000F5E703200223F2E704200323EFE705205A
:102440000423ECE706200523E9E707200623E6E757
:1024500008200723E3E700BF9F8601003F420F00EB
:102460007F969800FFE0F505FFC99A3BC0B1114B7C
:102470001B681B6E984210B5044682B016D02046E9
:10248000FFF7A4F8436901905BB90068FFF7A4FA6D
:1024900001A8FFF7AFF82046FEF730FF02B010BDED
:1024A0007047184600F004FF0198EEE700F098FD31
:1024B000E5E700BF4C00002030B583B018B90446F2
:1024C000204603B030BDFFF781F8036802AD1B69F9
:1024D00045F8040D9B68984702F030FC04462846F6
:1024E000FFF788F8204603B030BD00BF70B110B5CB
:1024F00082B0FFF76BF800F1180402AB43F8040D4B
:102500001846FFF777F8204602B010BD704700BFAD
:1025100000B970472DE9F04FA3B08B4692460446B0
:10252000FFF754F822AB456943F81C0D1846FFF736
:1025300061F82046FFF7C0FF0828814640DD002DE6
:102540003ED12046FFF742F822AA0346B0F9081010
:1025500042F8100D10460D92B3F90A200A91099223
:102560001968DA680E690B930E92FFF743F89248E8
:1025700092490068D6F80480407C51F820100D691B
:102580002B680C93FFF7C8FD08280B9B14D9102863
:102590008BBF20221022042702270B92AE4200F0AC
:1025A000F882B9F1200F00F0B381B9F1100F00F0FB
:1025B000458123B0BDE8F08F082201270B92EDE79B
:1025C0000021012320467C4E20910DF188080B91BB
:1025D00021930A93FEF7FAFF074630683A68FB68D2
:1025E000B7F908101269139314913B69B7F90A10EF
:1025F000407C0993169148F8147D5568D7F81490DB
:10260000FFF78AFD32680E90507CFFF711FE0746F7
:102610004046FEF7EFFF099A0A9B082A0B9940F201
:102620009D80102A13460A918CBF042302230C9329
:10263000BD4200F0C1813368587CFFF7F1FD149B67
:1026400006469800FEF716FE10900028B1D02046EE
:10265000FFF74CFF0446B9F1000F00F088804846B0
:10266000FEF7B4FF169B1E90002B40F3A1810023C0
:10267000DDF83880CDF834A00B93139BCDF848B02B
:10268000E31815931FAB19460F93836800225B690B
:102690001F920B9A9847159B139A04469B1A0E9308
:1026A000149B834200F0F680099B012B00F0888088
:1026B000002842D01CAB11931098FEF787FF099BAE
:1026C00007461C90082B1F9A65D90C9BA3460E99B0
:1026D000824602FB031939F8020BA847B047BBF149
:1026E000010B4AF8040BF6D1B8F11F0F04D8384695
:1026F0004246214600F0F2FD0A9901231F98224626
:10270000059112991C9F08440021019300930391A5
:10271000CDF808800D99049701F05EFC1198FEF742
:1027200069FF1F9B1E981C440B9A83680F991F9486
:102730005B69984704460028BED1159A13990B9BF4
:102740000A44013315920D9A0B9301320D92169A99
:102750009A4200F02D811E980F9996E7012A03D125
:1027600020AB0C920A9363E70C930A9160E7012572
:102770000A9B139A09990593049058460392029173
:102780005146169B149A0195009501F025FC10986E
:10279000FEF7B4FD0DE70C9BA2460E99814602FBA5
:1027A000031B1BF8010BA847B047BAF1010A49F80F
:1027B000040BF6D198E700BF4C000020A4C3012011
:1027C0000028BAD0CDF8608019960B9F0A9EDDF8DC
:1027D0003880DDF83490DDF848A0DDF83CB017957E
:1027E0001192DDF87CE02246119D01230EF00700D6
:1027F00049460395012506900AEB0E00BEF1000F35
:1028000005960295B8BF0EF1070E0195009508EBED
:10281000EE0ECDF810E002F083F91F9B1E983A46A9
:102820001C44594683681F945B69984704460028F6
:10283000D7D1179DDDF86080199E7EE70A9B03FBC8
:1028400007F0FEF717FD109000283FF4B2AEFEF738
:10285000BDFE20902046FEF7B9FE00F118031E9041
:102860000E932B69002B00F0A6817369002B00F0FA
:10287000A281B0F908008000FEF7FCFC119000284E
:1028800040F0BA811F900D98FEF7B4FE20A8FEF725
:10289000B1FE7CE71098FEF799FE099B81461C90DB
:1028A000082B149F0446DDF838A028D93AF8020B0B
:1028B000A847B047013F44F8040BF7D1B8F11F0F08
:1028C00004D848464246149900F008FD22AB1298FD
:1028D0000D991A460A9B059300230393012352F88E
:1028E00018EDCDF8088017460193149A0093CDF89F
:1028F00010E001F071FB3846FEF77CFE1DE71AF888
:10290000010BA847B047013F44F8040BF7D1D5E7C6
:102910000A9B07FB03F0FEF7ADFC0E9000283FF486
:1029200048AEFEF753FE20902046FEF74FFE1E9065
:102930002C6900F11808002C00F0EB800A9A5C4624
:1029400001260A954FEA82099346CDF83090DDF8CA
:10295000249017E0042F21D0012F15D00B9B0020CD
:10296000209D51460293012305905A46039020462C
:1029700001969A440096049501F02EFBB9F10109E5
:1029800000F0E880022FE5D10C9D40463B465A46B8
:10299000A8440A9D20992D69A847DFE70C9B404673
:1029A0000A9D5A46984420993B462D69A847D5E789
:1029B0001EA8FEF71FFEEAE62046FFF797FD8046B9
:1029C000B9F1000F00F0D4804846FEF7FFFD169BDA
:1029D0001E90002B40F3C88000261FABCDF834A01A
:1029E0000125B146DA461F4683683246CDF87C9011
:1029F00039465B699847149B0446834231D0099B52
:102A0000012B57D020B30D9B0B9603EB060B1F98A1
:102A100001230C990A9A01FB008E099E13995044D8
:102A20000592224603915946CDF810E00296019591
:102A3000009501F0D1FA1F9B1E9839461C440B9A51
:102A400083681F945B69984704460028DFD10B9E7A
:102A5000139B01369844169BB34240F385801E9821
:102A6000C2E7CDF82C80B346984600E0A3461E98F6
:102A70000BF101043946836822465B69984780451B
:102A8000F4D00A9AC6EB0B03DDF82C805046059271
:102A900001330D9ACDF810809119139E099A03966F
:102AA00002920195149A06FB03880095264601F0D0
:102AB00093FAD0E70028CBD00D9B0B9603EB060BC7
:102AC000DDF87CE022460A9E01230EF007005946FD
:102AD000059606900AEB0E00BEF1000F139E0295BC
:102AE000B8BF0EF1070E0396019508EBEE0E0095A8
:102AF000CDF810E002F014F81F9B1E9839461C44D4
:102B00000B9A83681F945B69984704460028D7D1C5
:102B10009DE7A1460125099E0123022F51460A9AED
:102B200058460AEB030E00F0A981042F00F07D81C6
:102B30009F4200F052810B9CF246CDF81490029413
:102B4000209CCDF80C9001950095049401F044FA76
:102B5000013EE1D10D98FEF74DFD20A8FEF74AFD9C
:102B60000E98FEF7CBFB24E51EA8FEF743FD20E5FB
:102B700001240A9B139A09990593049058460392DD
:102B800002915146169B149A0194009401F024FA84
:102B90000FE50E9A01241833002503925146049341
:102BA0005846099BCDF808900A9A0595019400941F
:102BB00001F012FAFDE40125DDF82890099E0123B9
:102BC000022F51464A4658460AEB030E00F0D480C5
:102BD000042F00F0A0809F426DD000240195009545
:102BE000F246059403940B9C0294209C049401F0FB
:102BF000F3F9013EE3D146E6FEF7E8FC1F9000281A
:102C00003FF441AE0A9A0124CDF828B04FEA4209B8
:102C100090460C95CDF83C90B146DDF838B017E001
:102C2000042F2ED0012F28D00B9B0020209D514631
:102C3000029301230590424603909A440194009424
:102C40000A98049501F0C8F9099B013B09932BD020
:102C5000022FE5D1209B1E463B4642461F9958460F
:102C6000D9F81450A8470F9D31463B46AB440C9D04
:102C700042461F982D69A847D6E7209B1E4602238F
:102C8000EBE7209B42460F9E58461D461F990223A4
:102C9000B344D9F81460B04729460C9D3B464246E0
:102CA0001F982D69A847BFE71FA8FEF7A3FC11983E
:102CB000FEF724FBE7E50A9B444609965D000C9E5F
:102CC0000C95209DDDF83880DDF8289038F8020B4F
:102CD000A047B047B9F1010905F8010BF6D10E9DE7
:102CE00001230B985146AE460C9D02905846AE44C7
:102CF000209DCDF814909A440A9ACDF80C90019733
:102D000000970495CDF838E001F066F9099B013B86
:102D10000993D6D1B7E50A9B0125099644465E0082
:102D20000C9F0C96209EDDF83880DDF8289038F84E
:102D3000020BA047B847B9F1010946F8040BF6D1D8
:102D40000E9E01230B985146B6460C9E02905846A3
:102D5000B644209ECDF814909A440A9ACDF80C906F
:102D6000019500950496CDF838E001F035F9099BFE
:102D7000013B0993D6D186E50A9B01250996444675
:102D80005E000C9F0C96209EDDF83880DDF82890C0
:102D900038F8020BA047B847B9F1010926F8020B31
:102DA000F6D10E9E01230B985146B6460C9E02901A
:102DB0005846B644209ECDF814909A440A9ACDF80D
:102DC0000C90019500950496CDF838E001F004F9D7
:102DD000099B013B0993D6D155E595000C9C0996BA
:102DE0000C95209D4646DDF8289056F8040BA04728
:102DF000B9F1010905F8010BF7D10B980123209EC9
:102E0000514602905846CDF814909A440A9ACDF84B
:102E10000C900197009704960C9D01F0DDF8099B3A
:102E2000A844013B0993DCD194E60996012596005C
:102E30000C9C0C96209E4746DDF8289057F8040B12
:102E4000A047B9F1010946F8040BF7D10B9801230B
:102E5000209F514602905846CDF814909A440A9A01
:102E6000CDF80C900195009504970C9E01F0B4F8F4
:102E7000099BB044013B0993DCD16BE6099601251F
:102E800096000C9C0C96209E4746DDF8289057F83B
:102E9000040BA047B9F1010926F8020BF7D10B98F2
:102EA0000123209F514602905846CDF814909A4431
:102EB0000A9ACDF80C900195009504970C9E01F0AC
:102EC0008BF8099BB044013B0993DCD142E600BF7B
:102ED000094B1A6A002A18BF002003EB800210B4C5
:102EE0009469002C04DB4FF0FF3443F82010946108
:102EF0005DF8044B704700BFC4C1012058B311B343
:102F00000AB3B1F90030F0B5B2F90050B2F902E0FD
:102F1000B1F902409D42B2F90470B2F90660A8BF4F
:102F20001D46B1F904207445B1F90630A8BF7446B6
:102F3000BA420580B8BF3A46B3424480B8BF334670
:102F40008280C380F0BD002908BF11460A684B6823
:102F5000026043607047704778B189B2C38892B20B
:102F600070B40688448885880E4414441A44294461
:102F7000068044808180C28070BC7047B0F9022016
:102F8000B1F906309A4214DCB1F90220B0F90630EA
:102F90009A420EDCB0F90020B1F904309A4208DC04
:102FA000B0F90400B1F900308342CCBF0020012009
:102FB00070470020704700BF08B5034B01467422DC
:102FC0001868FDF74EF908BD4C00002008B5034B0A
:102FD00074221968FDF745F908BD00BF4C000020B8
:102FE00008B501F091FC01F089FDBDE8084002F050
:102FF000E9B900BF70B50A4D01282A68567C01D98D
:10300000304670BD0446FEF70BFD0028F8D02B6853
:103010005C74FFF7E5FF034B30461C6070BD00BFDA
:103020004C000020E4C7012001F090BC01F0C8BCB6
:10303000034B02461B68D86902B1DA61704700BFD2
:103040004C00002010B418B111B10346002002E07A
:10305000002101200B46034C034A216013605DF8F8
:10306000044B7047ACC30120B0C30120084A0B4693
:10307000014670B415681A46064C074E6D7C3080C8
:1030800054F82500054DC4682B80236A70BC18478E
:103090004C000020A4C301209AC301209CC301203E
:1030A000034B1B68B3F92A2058851046704700BFB0
:1030B0004C000020024B1B6803B11847704700BF4B
:1030C00088C20120024B1A6802B91860FFF7F2BFEC
:1030D00028C2012000B970472DE9F041DFF8B8801F
:1030E00082B00546D8F80040A04242D06F461CB9D5
:1030F00019E0FEF77FFAB4B12046FEF767FA0346FF
:1031000038469C680093A542F3D12846FEF75EFA44
:103110000346009A01A8996801939160FEF76AFA44
:103120003846FEF767FA2846FEF750FAD8F804400A
:103130000090A542184B29D094B101AE02E0FEF7F1
:1031400059FA6CB12046FEF741FA034630465C68F6
:103150000193A542F3D1009A52685A60FEF74AFAE9
:103160003846FEF747FA2846FEF7C8F802B0BDE831
:10317000F08102AEFEF72AFA83686F4646F8040D26
:103180003046C8F80030FEF735FACCE742683846DA
:103190005A60FEF72FFAE6E7C0C2012010B582B0F0
:1031A00018B90124204602B010BD0C46FEF70EFAF5
:1031B000828902AB224243F8040D184614BF012451
:1031C0000024FEF717FA204602B010BD0A4A002379
:1031D00030B5146883B003605CB105462046FEF745
:1031E000F5F902AB026943F8040D18462A60FEF7B0
:1031F00001FA204603B030BDC0C20120002370B5E3
:103200000B6082B018B90446204602B070BD0D466E
:10321000FEF7DCF9846801AE01902CB93046FEF768
:10322000E9F9204602B070BD3046FEF7E3F92046CA
:10323000FEF7CCF9036901902B60EFE7F8B5084E73
:1032400005460468336820461B689847336807467C
:1032500020465B689847044438462C60F8BD00BFA0
:10326000B8C30120F8B569B105460C460026064FE3
:103270003B6828465B689847013C05440644F7D103
:103280003046F8BD0E46FBE7B8C301202DE9F843F0
:10329000089C054689469846A96843462846561C18
:1032A0004F684946B847013C3246F5D1BDE8F8833E
:1032B00030B583B00546FEF789F9034602A89C891C
:1032C00040F8043D013C24B29C81FEF793F914B907
:1032D0002846FEF713F803B030BD00BF082A10B42B
:1032E0000EDD102A1CDC00EB4101034650F8042BD4
:1032F00023F8022B9942F9D101205DF8044B704765
:10330000022A11D0042A00F09A80012A3FD00144F9
:10331000034650F8042B03F8012B9942F9D1EBE74F
:1033200000205DF8044B704700F1100252F8103C89
:1033300001294FEA8313DBB226D052F80C4C022944
:103340004FEA041404F0300443EA04031CD052F89A
:10335000084C03294FEA840404F00C0443EA0403F4
:1033600012D052F8044C043902F1100204F00304A4
:1033700043EA040300F8013BBED052F8103C012997
:103380004FEA8313DBB2D8D103700120B5E700F117
:10339000200252F8203C01294FEAC313DBB2F3D0DC
:1033A00052F81C4C02294FEA841404F0400443EA0A
:1033B0000403E9D052F8184C03294FEA441404F0EE
:1033C000200443EA0403DFD052F8144C04294FEAE6
:1033D000041404F0100443EA0403D5D052F8104C4E
:1033E00005294FEAC40404F0080443EA0403CBD0DF
:1033F00052F80C4C06294FEA840404F0040443EA12
:103400000403C1D052F8084C073902F120024FEAF8
:10341000440404F0020443EA0403B5D052F8244CF7
:10342000012904F0010443EA040300F8013B52F8C7
:10343000203C4FEAC313DBB2B2D10370A5E700F121
:10344000080454F8083C01294FEA0313DBB213D0F7
:1034500054F8042C023904F1080402F00F0243EA84
:10346000020300F8013B3FF447AF54F8083C012940
:103470004FEA0313DBB2EBD1037008465DF8044B4F
:10348000704700BFF0B51B4E85B0F36F0BB105B0B0
:10349000F0BD194B6F4604AD4FF0010E06F18004EC
:1034A000C6F87CE00FCB07C7190C15F8102D27F8CC
:1034B000023B397004F8012B15F8012F002AF9D1CD
:1034C000FEF784FE234610F8012B194603F8012B62
:1034D0000278002AF7D14A7008F05AFE0CF004F97D
:1034E000064B0748C6F8943005B0BDE8F04000F040
:1034F0009BBB00BF28C101209048010899AD00087E
:10350000BCC101202E4B1B682DE9F041044682B05E
:103510000D4683B1002003F047FC48B16E463246A9
:103520002946204604F0DEFF03F0D0FA0028F6D149
:1035300002B0BDE8F081DFF88C806B4610686E4603
:10354000D8F800705168B7F84CC0B7F850E003C322
:10355000BDF800706846BDF80410BDF8022067444D
:10356000BDF8063061447244ADF800707344ADF8A4
:103570000410ADF80220ADF8063003F015FC60B978
:10358000D8F80030598C9A8CDC6C186D091B121A13
:1035900059849A8402B0BDE8F081D8F800303246F0
:1035A000BDF802002946BDF80070988420465F846B
:1035B00004F098FF03F08AFA0028EED1E0E700BF9C
:1035C000B4C301204C0000202DE9F04F0C4687B019
:1035D00017461D460190FEF7D3FDDDF804A0814695
:1035E000002C00F0A48004AB2068616803C317F0CE
:1035F0000C0B5FD1BDF91260CDF804A0002D56D0A0
:103600000DF1040809F1FF39504607F003070024C3
:103610001FFA89F9DFF838A12DE0022F3CD00FB94D
:10362000BDF91040013833B20FFA84FCDAF80020FB
:10363000204409EB060EA2F822C05946938402AA40
:10364000ADF80C000198ADF808C0ADF80A30ADF83F
:103650000EE0FFF757FF59460198FFF703FE019B65
:1036600018440190FEF78CFD0644404600F0F0F946
:10367000E8B9E5B10198294600F0A8F98346019818
:103680005946CBEB050500F061F9012FC5D1BDF915
:103690001440241A0134C5E7BDF91040BDF91430B7
:1036A0001B1B1B1A48BF013304EB6304BAE707B0C6
:1036B000BDE8F08F002D3ED02C4600260DF1040809
:1036C00000E094B12146019800F080F9034601988A
:1036D00001361946E41AFFF7C5FD019B0344404635
:1036E000019300F0B5F90028EBD0BBF1080F09D029
:1036F000BBF10C0F0DD0BBF1040F03D0CDF804A02B
:1037000000267FE706FB09F6BDF916309E1B013641
:1037100072E706FB09F6BDF91210BDF91620521A20
:10372000531C9B1B48BF013301EB630664E704A8ED
:10373000FEF714FD5BE7BBF1080F05D0BBF10C0FE2
:1037400004D0BBF1040FB2D10026DDE72E46E2E73C
:103750004C0000202DE9F04F7B4C8FB01D460493A8
:1037600023686F1E1C6DDB6C14441A180B440CA8E4
:10377000ADF8324019460793E3190692ADF83020B0
:10378000ADF83410ADF8363003F00EFB00285BD0F6
:1037900007FB07F305FB05FA18460393AB1E0593D9
:1037A000EB1E0B9363190893A31C0A93C0EB0A0347
:1037B0000993049B002B43DD1898FFF737FC002F7B
:1037C00045D0089B3C4609980025DE1B00F020FBF5
:1037D000069A034604991046079A9B4600EB010996
:1037E00010460A9AC1EB0008921B0292C5EB09022F
:1037F0003146CBEB0900C344013A00F073FD05EB01
:103800000800029B31465A4601301E4400F06AFD12
:10381000013C4FF0000504FB04F318D0C3EB0A0091
:10382000019300F0F5FAA7428346019BDEDD039A7F
:10383000D01A00F0EDFA0546D8E7049B022B49D1D7
:1038400003F044F90028B4D10FB0BDE8F08F049B19
:10385000012BF5D01998FFF7E9FB059B002BECD065
:103860001D46069B049A1946C2F10206134601EB57
:103870000209079A1146C3EB0108089B1E4413E096
:10388000C4EB09023146C3EB090003EB080B013A14
:1038900000F028FD04EB080031465A46013001369D
:1038A00000F020FD013DC8D005FB05FB0024CBEB5B
:1038B0000A0000F0ADFAAF422346E1DD039BCBEBFB
:1038C000030000F0A5FA059A0346AA42C8BF00F11A
:1038D000FF34D5E71A98FFF7A9FB0B9C002CAFD05B
:1038E000069B049A1946C2F1030501EB02080799E9
:1038F0008E1A08F1FF3B731C0193089B1D4411E0D5
:10390000002000EB06092946C0EB08005A4600F0EB
:10391000E9FC29464A46019800F0E4FC013C05F127
:1039200001058DD004FB04F9C9EB0A0000F070FA20
:10393000A742E5DD039BC9EB030000F069FA059B94
:103940000138A342DCDDDCE74C00002070B584B018
:103950001C4A04AB019043F8101D194613689847A0
:10396000019050B3184B1B68DB695B692BB11B6876
:103970001BB10099984704B070BD009B013B002B20
:1039800000931CDB002401A8FFF758FC0546FEF756
:10399000D5FB009B0444013B002B0093F3DA002687
:1039A00004A9284641F8046DFEF7D0FB039B98421A
:1039B000B8BF1E1A301904B070BD04B070BD002528
:1039C0002C46ECE79C0000204C00002030B583B072
:1039D0000190E0B1104B0D461B68DB695B6923B1B8
:1039E0005B6813B1984703B030BD002D11DD002492
:1039F00001A8FFF723FC38B10A2805D00134A542FD
:103A0000F6D1284603B030BD204603B030BD03B028
:103A100030BD0020E7E700BF4C000020F8B50446A9
:103A200088B10026094D00E001362B6820461B684E
:103A300098472B68074620465B6898470444002F48
:103A4000F2D13046F8BD06463046F8BDB8C3012075
:103A500010B5044682B0236802A840F8043DFFF781
:103A6000EDFB48B10A2802D0002002B010BD019B36
:103A70000020236002B010BD012002B010BD00BFC5
:103A8000B1F90030B0F900209A42B0F90220B8BF75
:103A90000380B1F902309A42B0F90420B8BF4380E4
:103AA000B1F904309A42B0F90620C8BF8380B1F959
:103AB00006309A42C8BFC380704700BFB2F90030D9
:103AC000F0B5B1F90040B1F90250B2F902E0A342F9
:103AD000B2F90470B8BF2346AE457446B2F9066029
:103AE000B8BF2C46B1F90450B1F906203946AF42AF
:103AF00003804480A8BF2946B242A8BF32468180D5
:103B00009442D8BF8B42C280CCBF0123002383F0F4
:103B10000100F0BD3A4B1B682DE9F0415D7C82B09D
:103B2000012D03DD012002B0BDE8F081354E0446D1
:103B3000736813B1014628469847012C27D0022C00
:103B40000FD0002CEED1AC00DFF8B8803719BB687D
:103B5000012B3AD001202644002B18BF013BB36053
:103B6000E1E72846FDF75CFF01900028DAD0C36842
:103B70000D2101A85B6A984704460028D2D033681B
:103B800003B1984702210198A0470020CBE706EB3C
:103B90008506B7681FB101372046B760C3E72846DE
:103BA000FDF73EFF01900028BCD0C3680D2101A89D
:103BB0005B6A984703460028B4D02146019898478D
:103BC000B36838460133B360ADE72846FDF728FFF8
:103BD000019088B1C3680D2101A85B6A984705462A
:103BE00050B1D8F8003003B1984700210198A84798
:103BF000331900209B68AEE7BB680120ABE700BF2C
:103C00004C00002090C20120CB8892B270B40E8884
:103C10008D884C881644AD1A11199A1A0680858031
:103C20004180C28070BC704780B483B000AF7860C0
:103C3000064B1A687B685A60044A7B68136000BFB1
:103C40000C37BD465DF8047B704700BF9CC1012066
:103C5000F0B5076883B005460E46CFB9002E58D0A0
:103C600033464FF0FF3200E0224613F8010B541C9C
:103C70000028F9D1941C3846FDF79CFC844222D0E0
:103C80002046FDF7F7FA074668BB002003B0F0BDF9
:103C90003846FDF79BFC224B0190002E14BF3246A4
:103CA0001A46002808BF1846137801788B4206D1BF
:103CB0005BB310F8011F12F8013F8B42F8D001A846
:103CC000FDF798FCCAE7384602ADFDF77FFC154BBF
:103CD0002246314645F8040D1B6898472846FDF7F3
:103CE00089FC0120D2E702ACFDF770FC314644F8B4
:103CF000040DFCF7E9FA2046FDF77CFC2846FDF7A9
:103D000021FB01202F6003B0F0BD01A8FDF772FC7C
:103D1000BBE73846FDF74EFC0028B6D03446AFE787
:103D2000B0A20108A0000020F8B506464AB18407F9
:103D3000C9B208D001E0830705D0013A00F8011BA1
:103D4000F9D13046F8BD97083B464FB301EB01244B
:103D5000032F02F0030204EB044415D900F1100311
:103D60003D46043D43F8104C43F80C4C1033032DF2
:103D700043F8184C43F8144CF3DC043FBB085D1CBB
:103D8000A7EB830300EB051043B1012B046003D0C4
:103D9000022B446018BF846000EB8300002AD0D05F
:103DA000FCF789FA3046F8BD70B4840702D501806B
:103DB000013A023056080DD0032E334601EB014480
:103DC0000DD8012B046003D0022B446018BF84601F
:103DD00000EB8300D30770BC48BF0180704700F13F
:103DE00010033546043D43F8104C43F80C4C103397
:103DF000032D43F8184C43F8144CF3DC043EB3088D
:103E00005D1CB6EB830300EB0510DAD1E2E700BFDF
:103E1000B0F1804F2BBF4FF0004300234FF08042A2
:103E200000225B08801A03F1805203F10051904296
:103E30002CBF0B4600225B08821A03F1806103F15C
:103E400000608A422CBF034600215B08501A03F130
:103E5000807203F1007190422CBF0B4600225B0878
:103E6000811A03F5800203F5000091422CBF03463E
:103E700000225B088A1A03F5801103F500108A42BC
:103E80002CBF034600215B08501A03F5802203F57E
:103E9000002190422CBF0B4600225B08811A03F5DB
:103EA000803203F5003091422CBF034600225B08AC
:103EB0008A1A03F5804103F500408A422CBF03466D
:103EC00000215B08501A03F5805203F5005190421F
:103ED0002CBF0B4600225B08811A03F5806203F5B4
:103EE000006091422CBF034600225B088A1A03F54A
:103EF000807103F500708A422CBF034600215B08E5
:103F0000501A03F1400203F1800190422CBF0B468E
:103F100000225B08811A03F1100203F12000914294
:103F20002CBF034600225B088A1A191D03F1080002
:103F30008A422CBF034600215B08521A581C991C68
:103F4000904294BF0846184640087047044A054B03
:103F50001268527C53F822301B691B68184700BF57
:103F60004C000020A4C30120C0F30721C0F3074385
:103F7000C0B2994210B40AD1884208D1083314481B
:103F80005DF8044BA0FB033000097830704700EB6C
:103F90008000104C03EB83027F3001EB81017F3204
:103FA000A4FB00307F31A4FB0232A4FB0131C00925
:103FB000D2095DF8044B00EBC000C90902EB800395
:103FC00001EB410003EB40006B2888BF28307047AD
:103FD000F1F0F0F0818080802DE9F04FB64C91B087
:103FE000D4F800E01B9D1D9E1E9F1F9C0F90059204
:103FF0000C93DDF868A00D95DDF870C00E9607975C
:104000000894BEF1000F06D0DEF80040A44611B0BF
:10401000BDE8F04F60474AEA05038946012B00F0EE
:104020009380CCF1080302930C9B002B40F3898012
:10403000A24BF046E146CDF828E0186804910D9AAD
:10404000049953181A460B93B0F90A30013A934277
:10405000099269DCB0F90E308B4265DB059B002BC1
:1040600062DD00260F9B079F03EB0A043546069787
:104070004DE0C9EB0606029B48FA03F208FA09F87C
:1040800012F0FF025FFA88F802D1037C9B0739D453
:10409000D0F83CC0DCF800300393089B0BB153F818
:1040A0002220B0F9083004F1FF3EB0F90CB099427B
:1040B000CCF80020B8BF1946DE457346A8BF5B4662
:1040C0008B421CDBB0F90A20049FB0F90EE0BA4223
:1040D000B8BF3A46099FBE45A8BFBE4672450EDC32
:1040E000407C774F57F82000D0F80CC0CDF800E0A6
:1040F000DCF810B0D847714B1868D0F83CC0039B6F
:10410000CCF800300135059B5444AB420CD0CAEBCF
:104110000401002EADD1069A029E134692F800804B
:10412000013306933346A7E7079A0E990A9B0A4480
:10413000013307920B9A0A9304920C9A9A427FF4E5
:104140007EAF11B0BDE8F08F5C4B1968B1F90A2061
:10415000C9EB0203002B40F3C1800C98C41A002C59
:10416000EFDD06FB037307930C9B4B44B1F90E0084
:10417000013B1B1A002B02DDE41A002CE1DD0F9835
:10418000059D4319B1F90C00013B1B1A002B01DD01
:10419000EB1A0593B1F908300F9D9D4215DB002500
:1041A000059B002BCDDD4E7C4548089F50F826002E
:1041B0000F99C6681E95079D1F971D950E9DCDF8FA
:1041C0006CC01C951A94746820E7059E5D1B0CF169
:1041D000FF30761B05961F28E2D801A656F820F07E
:1041E000C5420008A1420008A14100088942000818
:1041F000A1410008A1410008A14100087D4200083A
:10420000A1410008A1410008A1410008A141000806
:10421000A1410008A1410008A14100086F42000827
:10422000A1410008A1410008A1410008A1410008E6
:10423000A1410008A1410008A14100086142000815
:10424000A1410008A1410008A1410008A1410008C6
:10425000A1410008A1410008A141000861420008F5
:1042600007980F9300EB85000025079098E70798C3
:104270000F9300EB45000025079091E707980F93F7
:104280002844002507908BE7079825F0010300EBF1
:10429000650005F0010507900F9818440F907FE71F
:1042A000079825F0030300EBA50005F00305079030
:1042B0000F9818440F9073E7B4C301204C000020FE
:1042C000A4C30120079825F0070300EBE50005F0E3
:1042D000070507900F9818440F9061E70C9C4A4619
:1042E000234642E7114B30B41C68B4F90A308B42C4
:1042F0000FDCB4F90E3099420BDCB4F90850B4F974
:104300000C30A842B8BF28469342A8BF1346984233
:1043100001DD30BC7047657C0A46054C014654F807
:104320002500C468A468A44630BC60474C00002047
:10433000A4C30120164B1B68B3F90A208A421CDC77
:10434000B3F90E20914218DCB3F90820824214DC44
:10435000B3F90C20904210DC30B41A7CD2070DD493
:104360005D7C0A460B4C0146DB6B54F825001B684C
:10437000C468A469A44630BC604770475C7C0A46A8
:10438000044B014653F82400C36830BCDB6918476E
:104390004C000020A4C30120114B30B41C68B4F9B8
:1043A000083083420FDCB4F90C3098420BDCB4F9CE
:1043B0000A50B4F90E30A942B8BF29469342A8BFAB
:1043C0001346994201DD30BC7047657C0A46054CB6
:1043D000014654F82500C468E468A44630BC604730
:1043E0004C000020A4C3012070B5154C82B0246895
:1043F000B4F90850B4F90C60A842B8BF2846B242DC
:10440000A8BF324682420BDBB4F90A60B4F90E5001
:10441000B142B8BF31469D42A8BF1D46A94201DD49
:1044200002B070BD667C1346064C0A46014654F83D
:104430002600C46800952469A04702B070BD00BF83
:104440004C000020A4C30120012801DD002070479A
:1044500010B5FDF7E5FA28B1C36808219B6ABDE8ED
:1044600010401847002010BD024B1B689B6B18685A
:10447000704700BF4C000020024B1B68DB6B1868C4
:10448000704700BF4C000020012801DD002070476C
:1044900010B5FDF7C5FA28B1C3680C219B6ABDE8C9
:1044A00010401847002010BD012801DD0020704792
:1044B00010B5FDF7B5FA28B1C3680D219B6ABDE8B8
:1044C00010401847002010BD094B1B68587C01287C
:1044D00001DD0020704710B5FDF7A2FA28B1C368CE
:1044E00009219B6ABDE810401847002010BD00BF9D
:1044F0004C000020012801DD0020704710B5FDF7B9
:104500008FFA28B1C36809219B6ABDE8104018479B
:10451000002010BD10B50020FDF782FA041C4FF0FA
:10452000010018BF0124FDF77BFA00B101342046D9
:1045300010BD00BF064B1B6810B5587CFDF770FA24
:1045400028B1C3680221DB6ABDE81040184710BDDE
:104550004C00002030B583B00C461546FDF760FADC
:10456000019070B1C36804215B6A0DEB01009847AC
:10457000034630B101982A4621469847002003B0EF
:1045800030BD012003B030BD012801DD002070479F
:1045900010B5FDF745FA28B1C3680E219B6ABDE846
:1045A00010401847002010BD094B1B68587C01289B
:1045B00001DD0020704710B5FDF732FA28B1C3685D
:1045C00001219B6ABDE810401847002010BD00BFC4
:1045D0004C000020014B1868704700BFF0C101205B
:1045E00038B5012500242846FDF71AFA012178B1D3
:1045F000C3689B6A98478442B8BF04460DB92046F9
:1046000038BD00252846FDF70BFA01210028EFD11F
:10461000F1E700BF094B1B68587C012801DD002031
:10462000704710B5FDF7FCF928B1C36802219B6AF9
:10463000BDE810401847002010BD00BF4C0000200E
:10464000014B5868704700BFF0C1012038B5012503
:1046500000242846FDF7E4F9022178B1C3689B6A7B
:1046600098478442B8BF04460DB9204638BD00259E
:104670002846FDF7D5F902210028EFD1F1E700BF68
:104680002DE9F84360B3856865B3DFF86480D8F836
:10469000006006B30768B7F5807F1FDC124B8146C8
:1046A0001B689F42A8BF1F46002F0DDD043D00245C
:1046B00001E0D8F8006055F8040FFFF747FC46F812
:1046C00024000134BC42F4D1084B1B680BB14846AE
:1046D0009847D8F800603046BDE8F8830026FAE72E
:1046E0000646F8E72E46F6E7A8000020A8C20120FB
:1046F000C4C30120044A054B1268527C53F822308F
:104700001B695B68184700BF4C000020A4C3012050
:1047100030B40949C0F3C42300F01F05074CC0F3AF
:104720004512CB5C485DA25C03EB004000EB02202D
:1047300030BC40F07F407047786A0108386A010851
:10474000A0F178030F2B10B42DD96B2827D81E4960
:104750001E4BA1FB0042A3FB00439208DB08A1FB18
:10476000024102EB420403EB43038908A0EB44003F
:104770005DF8044B01EB410100EB4000A2EB41026C
:1047800000EB001002EB420203EB031302EB0212F8
:1047900003EB004000EB022040F07F40704793287D
:1047A0000ED92838D3E700EB0012094B5DF8044B13
:1047B00000EB021000EB0030034443F07F407047F1
:1047C00000205DF8044B7047ABAAAAAA398EE338E3
:1047D000080000F80304C0F3074200F47F4003F42C
:1047E0007F03134343F07F4318437047C343C0F331
:1047F0000741020400F47F4003F07F4302F47F028C
:104800000B431343184370470A49C0F3C422C0F353
:10481000451300F01F008A5C085C120410B4064CBB
:10482000E35C5DF8044B02EB0323184440F07F4047
:10483000704700BF786A0108386A010840F07F407D
:10484000704700BF704700BF38B50B4D2C680CB1E6
:10485000002038BD094B18688000FCF78FFD2860E8
:1048600038B1074B074840F8043FFFF7DDF9204611
:1048700038BD012038BD00BFC4C30120A8000020FE
:104880007DAE0008A8C201202DE9F84FFFF742FED7
:10489000B0F100092FDD0025184FDFF868B0284679
:1048A000FDF7BEF820B33B68284693F811805D748D
:1048B000FFF7CAFD082818DC5BF82530104A1B6991
:1048C000934212D02846FFF715FE061E0DDD002488
:1048D0005FFA84FA01345046FFF70CFF5146024656
:1048E000284600F0A5F8A642F2D13B6883F8118073
:1048F0000135A945D3D1BDE8F88F00BF4C00002099
:1049000040990108A4C3012010B50E4C0E4B22683B
:10491000517C53F8210038B1C36813B11B68042BD4
:104920000BD000680028F7D1002102F108031166BE
:104930005361BDE8104000F035B8FDF74FF822682C
:10494000F2E700BF4C000020A4C30120014B1B680C
:104950005B68184750000020044B1B681A7C520704
:104960004CBFDB6B9B6B1860704700BF4C00002096
:1049700030B50A4C05460A4B83B022686946527C22
:1049800053F82200C3681B6B984720686A46294683
:104990000830FFF793F803B030BD00BF4C00002093
:1049A000A4C30120044A054B11684A7C083153F81E
:1049B0002200C3681B6B18474C000020A4C30120D1
:1049C000014B1B681B68184750000020044B1B68F4
:1049D0001A7C52074CBF9B6BDB6B1860704700BFA3
:1049E0004C00002030B583B00C461546FDF718F892
:1049F000019068B1C368162101A85B6A9847034615
:104A000030B101982A4621469847002003B030BDB6
:104A1000012003B030BD00BF014B83E803007047A5
:104A2000F0C10120014B1B689B6818475000002013
:104A300030B583B00C461546FCF7F2FF019068B123
:104A4000C368102101A85B6A9847034630B10198FA
:104A50002A4621469847002003B030BD012003B00C
:104A600030BD00BF30B583B00C461546FCF7D8FF0B
:104A7000019068B1C3680B2101A85B6A984703469F
:104A800030B101982A4621469847002003B030BD36
:104A9000012003B030BD00BF10B582B00C46FCF75A
:104AA000BFFF019060B1C368092101A85B6A984704
:104AB000034628B1019821469847002002B010BD56
:104AC000012002B010BD00BF30B583B00C461546C2
:104AD000FCF7A6FF019068B1C3680A2101A85B6AD0
:104AE0009847034630B101982A462146984700204E
:104AF00003B030BD012003B030BD00BF10B5074C7E
:104B00002368186BFFF722FAFFF760FF2368586BE2
:104B1000FFF71CFABDE81040FFF71EBF4C00002055
:104B20002DE9F04F91B0824C1B9D24682E460E95C6
:104B30001D9D0F900C951E9D059206951F9D0D9332
:104B40000895DDF868A0DDF870E0209D2CB12468A0
:104B5000A44611B0BDE8F04F60474AEA0603894613
:104B6000012B00F09280CEF1080302930D9B002BE5
:104B700040F388806F4BA046F1460A941868049170
:104B80000E9A049953181A460B93B0F90A30013A59
:104B90009342099269DCB0F90E308B4265DB059BCC
:104BA000002B62DD00260F9B069F03EB0A043546AF
:104BB00007974DE0C9EB0606029B48FA03F208FA94
:104BC00009F812F0FF025FFA88F802D1037C9B0714
:104BD00039D4D0F83CC0DCF800300393089B0BB10B
:104BE00053F82220B0F9083004F1FF3EB0F90CB0C0
:104BF0009942CCF80020B8BF1946DE457346A8BFDD
:104C00005B468B421CDBB0F90A20049FB0F90EE032
:104C1000BA42B8BF3A46099FBE45A8BFBE467245D4
:104C20000EDC407C444F57F82000D0F80CC0CDF883
:104C300000E0DCF810B0D8473E4B1868D0F83CC014
:104C4000039BCCF800300135059B5444AB420CD09B
:104C5000CAEB0401002EADD1079A029E134692F8CA
:104C60000080013307933346A7E7069A0C990A9B05
:104C70000A44013306920B9A0A9304920D9A9A42BF
:104C80007FF47EAF11B0BDE8F08F2A4B1868B0F901
:104C90000A20531A002B46DD0D99CC1A002CF1DDA9
:104CA000069E0C9901FB036306930D9B4B44B0F9E0
:104CB0000E10013B5B1A002B02DDE41A002CE1DD33
:104CC0000F99059E8B19B0F90C10013B5B1A002B54
:104CD00001DDF31A05930F9B591BB0F90830994277
:104CE0000DDA5B1A059F1D4423F00706FB1A3144B9
:104CF0000593069B03EBE50305F007050693059B6B
:104D0000002BBFDD467C0C48089F50F82600C66883
:104D10001E95069D1F971D950C9DCDF86CE01C956A
:104D20001A94746814E70D9C0A462346BEE700BF38
:104D3000B4C301204C000020A4C30120B8B130F05E
:104D4000010315D030F0030301D10820704730F083
:104D50000703FAD030F00F03F7D030F01F03F4D080
:104D600030F0FF03F1D00B4B03401BB9102070470C
:104D700001207047084B0340002BF7D0074B03403E
:104D8000002BF3D0064B0340002B0CBF102020203B
:104D9000704700BF00FEFFFF00F0FFFF0080FFFF35
:104DA0000000FFFF30B5456883B004460146284641
:104DB00000F0F8F990B123680B2B11D00F2B1CD108
:104DC0002846FCF703FC034602A840F8043D5B6E4E
:104DD0001C68FCF70FFC0CB12846A04703B030BD9F
:104DE000284602ADFCF7F2FB0346383045F8043D97
:104DF000FCF7A8FA2846FCF7FDFB204600F050FC23
:104E000003B030BD2DE9F04F044689B03B4F00267A
:104E10000091A569B0F90C104035B0F90A001944A9
:104E2000B4F910301044B4F90E200395029701969E
:104E3000678AB4F9085000F051FB044618B92046BF
:104E400009B0BDE8F08F0520FCF718FA804600286D
:104E5000F5D0DFF8B0902046FCF7B8FB3246294683
:104E60004D46059000F0A6FA2046254900F094FA38
:104E7000DDF814C055F8043B4FF0640A0CF14C0EF9
:104E80004FF0020BCCF864300FCDAEE80F0095E880
:104E900003008EE803008CF868704046CCF844604C
:104EA000CCF83880ACF840B0CCF848A0FCF78EFBCA
:104EB000059A08A90690556C936C6F4241F8040D51
:104EC0005B1B56630AFB07F090FBF3F0FCF7B6FBA5
:104ED000079B252206A8591C07911A70079B1E7074
:104EE000FCF788FB05A8FCF785FBD9F800302046C5
:104EF0005B689847204609B0BDE8F08FA54D0008D3
:104F0000249901088000002043680B2B2DE9F04113
:104F1000044682B0056A50D0122B3DD0052B03D039
:104F2000002002B0BDE8F0812868002865D0206923
:104F3000A7696B683F1A594E01377F10002B40F06C
:104F400098804FF0010ED6F810C07269E1690192A5
:104F5000C219CB1ACDF800C0616901307144FCF769
:104F600039FE6B68002B7DD1D6F818E0D6F81CC04E
:104F700001262069E569A26938446169EB1ACDF818
:104F800004C00130CDF800E0013A3144FCF722FEC4
:104F9000002002B0BDE8F0812B68002BC0D13F4B50
:104FA000AD68586AFEF742F80220FEF779F8284605
:104FB00062692169FCF7E0FDB2E7384B186AFEF739
:104FC00035F8A26921696069FCF7A4FFA26921692B
:104FD000E069FCF79FFFE26961692069013A0131EC
:104FE000FDF724F8E2696169A069013A0131FDF732
:104FF0001DF8002002B0BDE8F0816169E7696A68C8
:105000007F1A264E01377F10002A40D14FF0010849
:10501000D6F800C07368D4F818E00193CB19CDF826
:1050200000C0C2EB0E02206901314044FCF7A2FE31
:105030006A682ABBD6F808E0D6F80CC00126616978
:10504000E369A56939442069013BCDF804C0013109
:105050003044CDF800E0AA1AFCF78CFE002002B024
:10506000BDE8F081D6F808E00123D6F80CC0002690
:105070007FE701234FF0000ED6F800C0726865E7A5
:10508000D6F818E00122D6F81CC00026D7E78046E3
:105090000122D6F810C07369BDE700BF24010020CB
:1050A000806BFCF793BA00BF2DE9F041054610462E
:1050B0000F46B5F90420B5F90630B5F90080B5F909
:1050C0000240C8EB02081C1BFDF776F80646FDF708
:1050D0005FF8B5F8403008F10108EA6A013403F0DE
:1050E00003031268012B21D0022B17D012B2B6B2E3
:1050F000AB8F241A06F1FF3600F1FF301A4448BF87
:105100000134EB8F92B203EB64043A803244A4B2D0
:10511000BA8020447C80F880BDE8F081B8EB0602BC
:10512000B6B248BF013242F34F02E1E7D243B6B212
:105130004244921B12B2DBE730B490F86830C26A86
:10514000DB07146819D5456CB0F90230A942B0F9F3
:105150000620806CB8BF2946D21A884202F10102AB
:10516000D4BF011A411AA2EB4403401B03FB01F315
:1051700093FBF0F0204430BC7047456CB0F9003030
:10518000B0F90420A942806CA2EB0302B8BF294603
:1051900001328842D4BFC5EB0001C5EB0101A2EB8F
:1051A0004403E2E72DE9F04184B020B90125284607
:1051B00004B0BDE8F0810C460746FCF707FA064646
:1051C00022680290162A00F08E8026DD1F2A7AD0EF
:1051D0004FDD312A33D0B2F5407F45D1E26802A8D5
:1051E000F36A002514681B68F26204AE1C1BFCF70E
:1051F00001FA3846FCF7EAF9624223460094114668
:1052000046F8040D02F03CFA3046FCF7F3F9384654
:1052100000F05EFD029B5BB9C9E7112A59D03EDD63
:10522000142A12D0152A1FD1B0F930300025E360BE
:1052300002A8FCF7DFF9284604B0BDE8F08100259C
:105240000346E560002BF3D1B1E7E4680025214671
:1052500001F0FAFBF36A214620461A68FEF7D4FCF7
:10526000029B002BE4D1A2E733460125002BDFD1BE
:105270009DE71E2AF8D1D4F80C80B8F1010F36D181
:10528000438E03F01005ADB2002D4FD102A8FCF7FC
:10529000B1F9029BC4F80C80002BC9D187E70D2A15
:1052A000E2D1E368DB68002BDED01B7A002BDBD079
:1052B00002A80025FCF79EF9384600F0D1F8029BC1
:1052C000002BB5D173E7438E0025C3F30013E360D1
:1052D000AEE7438EDB0604D5E36813B11B7A002BDF
:1052E00036D10125A4E7E36800250386A0E7458EB3
:1052F0003846FCF76BF9438E25F0010503909D427B
:1053000003D04586384600F0E3FC03A80925FCF7E6
:1053100071F902A8FCF76EF929463846002500F01D
:10532000A9FF029BE560002B82D140E7384643F09D
:105330000105FCF74BF9438E0390AB4203D0458641
:10534000384600F0C5FC03A80825FCF753F9E0E750
:1053500002A80125FCF74EF9384601F0B3F8029B8C
:10536000002B7FF465AF22E700B9704730B583B0FA
:105370000C460546FCF72AF9418E0346019034EAB3
:10538000010204D021432846598600F0A1FC01A85F
:10539000FCF730F903B030BD00B585B000224FF402
:1053A0004073039169460292009300F0FFFF05B03D
:1053B0005DF804FB024B42861B680186C36270479E
:1053C0004C010020024B01221B6883F854207047D7
:1053D0004C00002000B970472DE9F04387B0044627
:1053E000FCF7F4F8076A019004ADD0F8288003C8F0
:1053F00085E8030001A8FCF7FDF8204601F090FCC9
:10540000064618B32046FCF70FF918F0020FD0F843
:1054100018901ED12046FCF7D9F801904846FCF7B9
:10542000D5F803903046FCF7D1F8039A034601996A
:10543000D56901A81F620D62D4610293FCF7DAF806
:1054400003A8FCF7D7F802A8FCF7D4F807B0BDE82A
:10545000F08328463A46494602F00EF8DAE700BFE4
:1054600000B9704730B583B00446FCF7AFF8036A63
:10547000009033B3826A120715D503469D696846CA
:10548000FCF7B8F8204602F09BF82946204601F0C8
:1054900057FD204600F01CFC204600220E4900F07B
:1054A00057FA03B030BD1846FCF790F8836A0190B4
:1054B0001B070BD56846FCF79DF801A8FCF79AF886
:1054C000EFE76846FCF796F803B030BD01A8FCF79B
:1054D00091F8009BD2E700BF75BB00082DE9F04FA3
:1054E00087B0684C81468A46DDF8408015462768BB
:1054F0001E46139CB8F1000F0DD1634B1B88002B87
:1055000068D104F12C00FBF7B9FE044620BB20460D
:1055100007B0BDE8F08FB8F1FF3F66D04046FCF71A
:1055200055F8B0F90020B0F90230914401909A4446
:105530001DB9B0F90450AD1A01351EB9B0F90660B5
:10554000F61A013601A8FCF755F804F12C00FBF718
:1055500095FE04460028DAD04B4A4D44119B564430
:105560000DF1180B013D1F431388013E01331380D9
:10557000FCF72CF8454A0346816A3A4012984BF8EA
:10558000183D0A4318619D805846DE80A3F80090BC
:10559000A3F802A09A62FCF72DF83D4B186800288A
:1055A00051D11C604146204601F0CAFCBA062AD4FB
:1055B000F8071DD4790622D4BB0752D4012306A9CB
:1055C0002046039441F8103D02F01CF8204607B035
:1055D000BDE8F08F2F4A304B1268527C53F82230CE
:1055E0005A1C012A8DD9984698E74FF0000888E7A1
:1055F0002A4A7906136803F101031360DCD52046BB
:10560000FFF7E8FED8E7234E254633689C6400E0A8
:1056100005462846FCF708F880690028F8D11E4B9B
:105620001A6895421AD05B689D4216D0FFF7BAF906
:105630002046FBF7F9FF3368B0F90010B0F90220FB
:10564000D9641A65B4E7FBF7EFFF05462046FBF780
:10565000EBFF6B6943616C61A4E70120FDF7CAFCB5
:10566000E4E72046FBF7B2FF034658469A6A0093E8
:1056700042F002029A62FBF7BDFF0021204600F0D3
:10568000BDFA9BE7D0C70120DEC701209F3F3F0046
:10569000D4C701204C0000202CC80120E8C70120FD
:1056A00003680E3B10B5044640681A2B12D8DFE899
:1056B00003F01B11111111110E11112011111111F3
:1056C0001111111111112211111111111400E168A0
:1056D00001F0A6F90023E36010BD0028FCD00021F2
:1056E000BDE8104000F08ABA2146BDE8104000F045
:1056F00063BEE06010BD6FF07043E36010BD00BF9B
:1057000008B100F001B870472DE9F0477F4E04461C
:1057100086B0306848B1A04202D109E0844207D087
:10572000FBF782FF40690028F8D106B0BDE8F0879A
:10573000254600E01D462846FBF776FF8369002BCF
:10574000F8D1734F3A68954200F0D8807B689D424B
:1057500014BF4FF0FF3501250B230DF1180820462B
:10576000039448F8103D414601F04CFF204601F0FB
:1057700071F82046FBF72AFF436A0190002B40F0A6
:105780009C80644B0021644A1B686448816052F825
:105790002300844208BF42F82310614A52F82310C4
:1057A0008C4200F08E805F4B1B6853B1002101E0FA
:1057B0001B6833B15A689442FAD159601B68002BB8
:1057C000F8D12046072100F055FDDDF80490D9F806
:1057D0001C00002857D12046FBF7F8FE8169029093
:1057E00000295CD14046FBF705FF306858B1FBF754
:1057F0001BFF804640698442F8D12046FBF714FF26
:105800004369C8F81430019B9B6AD90703D5464900
:105810000A68013A0A609A063CD401A8FBF7EAFE3E
:10582000424A20461388013B1380FBF767FD6B1C3F
:105830003FF47BAFDFF8FC8057F82550D8F80030F4
:1058400005B935689D642C4600E01C462046FBF7F0
:10585000EBFE8369002BF8D139682D4A8C424FD07A
:1058600053689C4250D0FFF79DF82846FBF7DCFEBA
:10587000D8F80030B0F90010B0F90220D9641A65E8
:1058800006B0BDE8F087FFF73FFFD9F81C000028FD
:105890009FD1A0E7264A1388013B1380BDE7026A27
:1058A000202301F07DFD2046FBF7BEFE8146806986
:1058B00058B9029B00229A6194E71846FCF7D6FD7E
:1058C0005FE7002142F823106DE7FBF7ADFEC369E7
:1058D00082469C420BD0002BEBD01846FBF7A4FE6F
:1058E000036A9C42F7D1D9F820300362E1E72046F1
:1058F000FBF79AFE036ACAF81C30DAE71D462BE76D
:105900001846FDF777FBAEE70120FAE7D4C7012080
:105910002CC80120E4C7012034C80120F8C10120AF
:1059200024C8012048C80120E8C70120DEC70120A3
:10593000DCC701204C00002000B9704708B5FBF718
:1059400073FE024B826A1340836208BDFBDFFFFFD8
:1059500000F0B8BF014B1B68986C70474C000020EA
:10596000044B0146186810B9034B1B68986C01F092
:1059700057B800BF3CC801204C00002001F050B8CF
:1059800000B585B01722002304A9039341F8102D18
:1059900000F00CFD039805B05DF804FB034A044BCE
:1059A0001268527C53F82200704700BF4C00002060
:1059B0002CC8012008B510B90346184608BDFBF7EE
:1059C00033FEC369184608BD024A034B126853F8F8
:1059D00022007047E4C7012034C8012008B510B97F
:1059E0000346184608BDFBF71FFE036A184608BDAC
:1059F00008B510B90346184608BDFBF715FE8369C4
:105A0000184608BD48B141B110B50C46FBF70CFE75
:105A1000034603CB2060616010BD704710B582B0B3
:105A200008B9FFF797FFFBF7D1FDB0F90430B0F9E3
:105A3000004002AA1C1B42F8040D10460134FBF77B
:105A4000D9FD204602B010BD10B582B008B9FFF7ED
:105A500081FFFBF7BBFDB0F90630B0F9024002AAA6
:105A60001C1B42F8040D10460134FBF7C3FD204611
:105A700002B010BD044A054B126853F82230181AC0
:105A8000B0FA80F040097047E4C7012024C8012023
:105A9000044A054B126853F82230181AB0FA80F005
:105AA00040097047E4C7012034C801202DE9F04FB8
:105AB000424D85B02B78002B75D1414F1C46DFF845
:105AC00034919A4638683F493F4ADFF81C813F4E7F
:105AD000DFF824B1AB604364C9F800300B80138059
